:020000040800F2
:10000000C809002091010008AD240008191E00084D
:1000100000000000000000000000000000000000E0
:100020000000000000000000000000009126000811
:100030000000000000000000D5250008732900081A
:10004000A301000800000000A3010008A3010008AC
:10005000A3010008A3010008A3010008A3010008F0
:1000600000000000A3010008A3010008A30100088C
:10007000A3010008A3010008A3010008000000007C
:10008000A30100080000000000000000A301000818
:1000900000000000A3010008A3010008A30100085C
:1000A00000000000A3010008000000004132000829
:1000B00000F002F800F041F80CA030C8083824180D
:1000C0002D18A246671EAB4654465D46AC4201D190
:1000D00000F033F87E460F3E0FCCB6460126334281
:1000E00000D0FB1AA246AB463343184750320000FB
:1000F000703200000023002400250026103A01D3AE
:1001000078C1FBD8520700D330C100D50B607047CF
:1001100010B5642902D100F019FA10BD732902D17B
:1001200000F060FC10BD002010BD1FB500980199C3
:1001300000F093FB1FBD10B510BD00F090FC114600
:10014000FFF7F3FF03F0CCF800F0A8FC03B4FFF7CF
:10015000F2FF03BC00F0D8FC70B505460C4616460D
:1001600002E00FCC0FC5103E102EFAD2082E02D39B
:1001700003CC03C5083E042E07D301CC01C5361FAE
:1001800003E021782970641C6D1C761EF9D270BDC5
:100190000748804707480047FEE7FEE7FEE7FEE71F
:1001A000FEE7FEE704480549054A064B7047000094
:1001B0002D2A0008B1000008C8030020C80900204B
:1001C000C8050020C805002070B5064600F028FBD1
:1001D000056830460B30C408E400B44201D8002062
:1001E00070BD68682A46002818D00168A14211D362
:1001F0000B46214608318B4208D3436801194B60F6
:1002000003681B1B0B605160046001E04168516092
:10021000001D70BD024640680028E6D121462846F0
:1002200000F006FB0028DCD170BD70B50446051F48
:1002300000F0F6FA0068002C1AD0446801E020466D
:100240006468002C01D0AC42F9D301680A18AA42B4
:1002500004D12A6805468918016000E045602868D5
:100260004119A14205D16168696021684018286080
:1002700070BD6C6070BD70B50D460646041F00F081
:10028000CFFA0268002D09D0002E0CD028460B3082
:10029000C108C900A9420AD2002070BD3046FFF74C
:1002A000C4FF002070BD2846FFF78EFF70BD236895
:1002B0008B4208D35A1A082A25D3601804C021603B
:1002C000FFF7B3FF1FE0506801E0024640680028D6
:1002D00001D0A042F9D31D19854216D105685B19DA
:1002E0008B4212D35D1A082D0AD3456863185D60EE
:1002F000256800682818401A18602160536002E0E1
:10030000236040685060201D70BD081FFFF75CFF30
:10031000050007D02268211D121FFFF71DFF201DB9
:10032000FFF783FF284670BDFEB5054610460C4614
:10033000184373D0AE468C460020AD1A01469C414E
:1003400067D36646002701243D46B61A9D4102D375
:1003500013463A462124654676462F04360C3E4322
:100360002D0CB61A9D4104D3150C1B042B4312040B
:100370001034654676462F06360A3E432D0AB61AD5
:100380009D4104D3150E1B022B431202083465460F
:1003900076462F0736093E432D09B61A9D4104D3F0
:1003A000150F1B012B431201241D65467646AF072E
:1003B000B6083E43AD08B61A9D4104D3950F9B0085
:1003C0002B439200A41C65467646EF0776083E4311
:1003D0006D08B61A9D411AD392185B41641C16E051
:1003E0000018764665464941B71A9D410191009033
:1003F00009D36046B11A98418E4684460098019907
:100400000025401C6941DD0752082A435B08641E31
:10041000E6D57246634603B0F0BDFFE70020014613
:10042000C046C0462A462346F5E700000FB41CB577
:10043000074B06AA7B4469460090059800F09FFA96
:100440000020694600F0AEFA1CBC08BC04B0184796
:100450006D0500000FB41CB50C0007AA009001D078
:100460000019401E084B7B4469460190069800F035
:1004700086FA002C03D06946002000F093FA1CBCD9
:1004800008BC04B01847000045050000F8B50E464A
:100490000446002020622046E1688847002829D0D1
:1004A000252802D06268A16820E0E1682046002784
:1004B000884705001ED028464138192802D8012750
:1004C000FF0220353246204627602946FFF720FEEE
:1004D000002808D0012804D0F61DF608F6000836DA
:1004E000D9E7361DD7E762682846A1689047206A99
:1004F000401CCFE7206AF8BD70B50C460546012ABE
:1005000005D02878800600D5EA69002302E001239F
:1005100005E05B1C934202D2E05C0028F9D1A86997
:10052000E618C01AA861286AC01828622846C04682
:10053000C04604E06A682078A968641C9047B44209
:10054000F8D32846C046C04670BD0000F7B5002568
:1005500075291068009914A611D0C046C04600281D
:1005600002DA404211A608E0009909688A0701D51D
:100570000FA602E0490704D50EA6012501E0C046FA
:10058000C046009F0024243704E000F02FFA3031E9
:100590003955641C0028F8D12B4632462146009874
:1005A00000F08FF9FEBD0000000000002D000000EB
:1005B0002B0000002000000030B5441C03E001784F
:1005C000401C00290DD08107F9D10B4BDD0104C877
:1005D000D11A91432940FAD0001B0A0603D0C01E4D
:1005E00030BD001B30BD0A0401D0801E30BD0902A1
:1005F000FCD0401E30BD000001010101F8B5042A05
:100600002CD3830712D00B78491C0370401C521E58
:1006100083070BD00B78491C0370401C521E8307C4
:1006200004D00B78491C0370401C521E8B079B0F93
:1006300005D0C91ADF002023DE1B08C90AE0FFF736
:100640008BFDF8BD1D4608C9FD401C46B4402C4337
:1006500010C0121F042AF5D2F308C91A521EF0D492
:100660000B78491C0370401C521EEAD40B78491CBD
:100670000370401C012AE4D409780170F8BD01E040
:1006800004C0091F0429FBD28B0701D50280801CFE
:10069000C90700D00270704700290BD0C30702D0F1
:1006A0000270401C491E022904D3830702D5028030
:1006B000801C891EE3E70022EEE70022DFE700222C
:1006C00003098B422CD3030A8B4211D300239C468F
:1006D0004EE003460B433CD4002243088B4231D307
:1006E00003098B421CD3030A8B4201D394463FE09B
:1006F000C3098B4201D3CB01C01A524183098B42FB
:1007000001D38B01C01A524143098B4201D34B01E3
:10071000C01A524103098B4201D30B01C01A524146
:10072000C3088B4201D3CB00C01A524183088B42CD
:1007300001D38B00C01A524143088B4201D34B00B6
:10074000C01A5241411A00D2014652411046704728
:100750005DE0CA0F00D04942031000D3404253402D
:1007600000229C4603098B422DD3030A8B4212D3ED
:10077000FC22890112BA030A8B420CD3890192111F
:100780008B4208D3890192118B4204D389013AD05C
:10079000921100E08909C3098B4201D3CB01C01A31
:1007A000524183098B4201D38B01C01A5241430944
:1007B0008B4201D34B01C01A524103098B4201D332
:1007C0000B01C01A5241C3088B4201D3CB00C01A9F
:1007D000524183088B4201D38B00C01A5241D9D2B7
:1007E00043088B4201D34B00C01A5241411A00D238
:1007F0000146634652415B10104601D34042002B34
:1008000000D54942704763465B1000D3404201B5B2
:100810000020C046C04602BD7047704770470000C8
:10082000004870477003002070477047704770475A
:1008300038B504460A4600206946C046C04600282E
:1008400005D002462046009900F0E8F8012038BDA6
:1008500010B5012000F0FCF810BDF8B5C046C04648
:10086000054600200C461020C0460646A819A042A6
:100870000DD9324669460020C046C046070001D166
:1008800000F0E6F80098A04200D00546C419FFF732
:10089000C7FFF61D07460560F008C0004619284648
:1008A00000F008F8B44204D031463868A21B00F0CA
:1008B000B5F8F8BD002101604160806070471020EC
:1008C0007047FFB504460D4681B024300090216882
:1008D000880604D51022E0699143216000E00120E0
:1008E000A84201DD471B00E000270498A1697A199E
:1008F0001018081AA0612078C00602D42046C0460D
:10090000C046002608E003986268A168805D9047B1
:10091000206A401C761C206204988642F3DB207813
:10092000C0060AD52046C046C04606E06268A168F7
:1009300030209047206A401C206238467F1E0028E5
:10094000F4DC07E000986268A168405D9047206A87
:10095000401C206228466D1E0028F3DC2046C0465D
:10096000C0462078000602D5022005B0F0BD012067
:10097000FBE7000001694A1C02610878704700B576
:100980008FB00291002105910549019379440391AB
:10099000114604906846FFF779FD0FB000BD0000D6
:1009A000E5FFFFFF0A681070521C0A6070470CC90F
:1009B00008399A4202D2531C0B601070704710B570
:1009C0004369002B02D0C046C04601E0FFF794FD0A
:1009D000012010BD1278014624310A7000224A70AD
:1009E0000122ECE711680022D243E8E701468008C3
:1009F000081A02091018020A1018020C1018C00870
:100A0000820012185200891A01E0401C0A390A2992
:100A1000FBD27047004870476803002010B50346BA
:100A2000406801E003464068002801D08842F9D3BD
:100A30001868C3188B4206D0CB1CD808C000001D14
:100A4000411A521A0146081D0A60FFF7EEFB10BD5D
:100A500010B500F031F800F029F810BD7047754668
:100A6000FFF7D8FFAE46050069465346C008C000F0
:100A7000854618B020B5FFF795FB60BC00274908F4
:100A8000B6460026C0C5C0C5C0C5C0C5C0C5C0C526
:100A9000C0C5C0C5403D49008D46704710B50446ED
:100AA000C046C0462046FFF751FB10BD10B50028D8
:100AB00001D000F029F810BD10B5012805D00021A3
:100AC00003A000F027F8012010BD09A1F8E70000FD
:100AD00053494752544D454D3A204F7574206F6627
:100AE0002068656170206D656D6F7279000000008F
:100AF0003A2048656170206D656D6F727920636F73
:100B0000727275707465640001491820ABBEFEE70F
:100B10002600020070B505460C460A2000E06D1C58
:100B200000F012F8002D06D028780028F7D102E056
:100B3000641C00F009F8002C02D020780028F7D1BE
:100B40000A2000F001F870BD08B56946087003205E
:100B5000ABBE08BD70B58C180578401C6B075B0FE9
:100B600001D10378401C2A1106D10278401C03E011
:100B70000678401C0E70491C5B1EF9D12B0705D46A
:100B80000023521E0DD40B70491CFAE70378401C59
:100B9000CB1A921C03E01D780D70491C5B1C521E81
:100BA000F9D5A142D8D3002070BD7047FD20704711
:100BB00010B504460748FFF782FD34214C4306492F
:100BC0006418E061226964215043FFF778FDA06159
:100BD00010BD0000A08601004C02002038B58078CE
:100BE00069460870182148430B494018027B694642
:100BF0004A70827B8A70407DC8700820FFF7E4FA53
:100C000004466A46062101F0DDF90121034B224624
:100C1000084600F085F938BDB4020020052600081A
:100C200038B5817800236C4600932170C2786270D9
:100C3000A37018235943184BCC18217B012901D0EC
:100C4000692006E00179012A06D0607D01280ED0D6
:100C500067206946887010E0A07B012801D06520DC
:100C6000F7E7607B642201F051FD032004E0607B24
:100C7000642201F031FD042020730820FFF7A4FA5C
:100C800004466A46022101F09DF90121034B2246E8
:100C9000084600F045F938BDB402002005260008DA
:100CA00038B58078002100916946087018210C4AF7
:100CB00041438918097B012903D0022901D001F0A1
:100CC0003FFD0820FFF780FA04466A46042101F040
:100CD00079F9044B22460121002000F021F938BDAA
:100CE000B40200200526000801B5684680780A286D
:100CF0000DD368460078082801D3012008BD684656
:100D00004078082801D3022008BD032008BD042034
:100D100008BD00210170417081707047F8B5002650
:100D20000670441C30200D681F46002A14D0002D88
:100D300014D039462846FFF7CCFC01467843281AE0
:100D400002D5C043313000E030302070641C761C86
:100D50000D460029EDD11DE0002D02D120700120AB
:100D6000F8BD39462846FFF7AAFC01467943691ABF
:100D70000A2901D2303107E0069A002A01D0412227
:100D800000E0612251180A392170641C761C054666
:100D90000028E6D13046F8BD70B5342148430E4CEA
:100DA00005460219204693695168405D994208D270
:100DB00000280FD1118E906A012200F026FA01203E
:100DC00007E0002806D0118E906A002200F01DFA7C
:100DD0000020605570BD00004C02002070B5064632
:100DE0003420114970434418A16800291AD0E068E2
:100DF000884217D86430E06065696843FFF75FFC9C
:100E0000C2B2954200D2EAB2206990420AD0226171
:100E1000AA4203D1314605A001F04AFB08493046F9
:100E2000FFF7C6FE70BD00004C02002050574D5F1A
:100E300025643A5354415254454E440D0A00000073
:100E4000B80B00000149012008737047B40200206C
:100E50000148012101717047D402002001B50098BA
:100E60006421484300F002F808BD000001B50348C2
:100E70000099416041680029FCD108BD00000020B4
:100E800002460348017803A001F012FB72B6FEE7A8
:100E90003902002053543A25642C455252434F44A2
:100EA000453A25640D0A0000F8B50025164F25E0E7
:100EB00016490E68294601F035FA04460068B0422A
:100EC00001D8301A01E0301A401EA168814214D2C4
:100ED000E068002804D06169002905D0884703E054
:100EE0002069002800D0804726602079002804D09F
:100EF0002146386801F0DEF900E06D1C3868416871
:100F0000A942D5DCF8BD0000200000200800002028
:100F100010B501F0C7F90149086010BD200000209C
:100F200010B586B0002B16D00C4C246800940593A5
:100F3000002302900493684601710392084C182222
:100F40006946206801F08CF920684168491E01F06B
:100F5000E9F906B010BD0020FBE700000800002002
:100F60002000002010B586B0002A16D00C4B0D4C86
:100F70001B68009300230492029005936846017158
:100F8000039318226946206801F06AF920684168D5
:100F9000491E01F0C7F906B010BD0020FBE70000B4
:100FA0000800002020000020F0B5094EFF23002299
:100FB000F71D1D46F93705E0845C5C40335D6B40EE
:100FC0003D5D521C8A42F7DB18022843F0BD000049
:100FD0003400002030B5014620314B780022022B2E
:100FE00004D0042383630A70012030BD03681C68A9
:100FF0000E25AC431C6003681C68640864001C6018
:101000000123056C1C46C06BAC4044604B700A70F9
:10101000002030BD70B50024014620314A78022AF4
:1010200003D004218163012416E0026813680E25B1
:10103000AB431360026813685B085B001360012216
:10104000056C1346AB40C56B6B604A7000220A709A
:10105000416B002900D08847204670BDF8B50023B9
:1010600003240125BAE02E469E40B44632407CD08F
:101070000E79B607B60F012E01D0022E17D1866861
:101080002746B6465E00B74000967646BE43B64653
:10109000CF68009EB740764637438760466867460C
:1010A000BE430F79FF06FF0F9F40374347600E791D
:1010B000F643B6070ED0C6682746B4465E00B6466D
:1010C000B7406646BE43B4468F687646B74066462C
:1010D0003743C7600E79B607B60F022E14D1DE086B
:1010E000B60036180096366A5F07B446FE0E0F2724
:1010F000B646B7406646BE43B4460F697646B7402B
:1011000066463743009E376206682746B4465E004F
:10111000B646B7406646BE430F79B446BF07BF0F19
:101120007646B7406646374307604E68B603B60F4B
:1011300053D02D4FBE692E43BE61BE699F08F6078E
:10114000F60F2A4EBF00BE190096B6680F27B446A8
:101150009E07360FB646B7406646BE430927FF06D0
:10116000B446B84202D1002710E036E0204FB84222
:1011700001D101270AE01F4FB84201D1022705E043
:101180001D4FB84201D1032700E005277646B7403E
:1011900066463743009EB760184E36684F689643E0
:1011A000FF0300D51643154F3E607E684F68964397
:1011B000BF0300D51643114F7E60BE684F6896434B
:1011C000FF0200D516430D4FBE60FE684F68964380
:1011D000BF0200D51643094AD6605B1C0A68164652
:1011E000DE4000D03FE7F8BD0010024000000140A3
:1011F0000004004800080048000C004800040140BA
:101200000069084000D001207047002A01D08161A8
:101210007047816270470000014880687047000095
:1012200010000020024881680278891881607047A8
:101230001000002010B5064801681022114301601B
:10124000032000F007F800F027F8002010BD000090
:101250000020024070B504460D4D7D202978C00065
:10126000FFF72DFA01460B480068FFF728FA00F057
:1012700043FB002809D1042C07D200222146401E3E
:1012800000F02AF800206C6070BD012070BD0000E5
:10129000100000201C00002008B5084881690122C8
:1012A00011438161816911400091C26901040A43BF
:1012B000C261C0690840009008BD000000100240F3
:1012C000002805DBC106C90E0120884001490860DD
:1012D0007047000000E100E010B501F0DBFF10BD39
:1012E000F8B505460068354CC00352D5E0690026C4
:1012F000C00007D4E16920040143E161E1690140D4
:10130000012600912E480168C90510D40168821594
:1013100011430160FFF780FF074604E0FFF77CFF01
:10132000C01B642824D826480068C005F6D5206A6A
:1013300003273F02384020D06968394081421CD0E1
:10134000206A226AB843012109040A432262226A00
:101350008A4322622062C0070FD0FFF75DFF009032
:1013600008E0FFF759FF0099411A1648814201D958
:101370000320F8BD206A8007F3D5206A6968B84366
:1013800008432062002E04D0E16901200007814358
:10139000E1612878C00705D0206BA968800880002B
:1013A000084320632878800605D5206B10218843E8
:1013B000E968084320630020F8BD000000100240E7
:1013C0000070004088130000F8B50F46060059D0A1
:1013D0003A4D2868C007C00FB84209D228684008B3
:1013E0004000384328602868C007C00FB84249D180
:1013F0003068334C81070CD5400704D5606807215D
:101400000902084360606068F0218843B1680843BE
:1014100060603078C00726D0706801280ED021683F
:1014200002280ED0890700292CDA61688908890012
:1014300001436160FFF7F0FE00900DE02168890331
:10144000F1E78901EFE7FFF7E7FE0099411A1D4830
:10145000814201D90320F8BD60680C210840716801
:1014600089008842EFD12868C007C00FB8420BD965
:10147000286840084000384328602868C007C00F2B
:10148000B84201D00120F8BD3078400706D5606829
:10149000072109028843F1680843606000F028F8DA
:1014A0006168094A0906090F515CC840074908608C
:1014B0000320FFF7CFFE0020F8BD0000002002400F
:1014C0000010024088130000243300081C00002094
:1014D0000448054900684968044A4905490F515CB8
:1014E000C84070471C000020001002403433000840
:1014F00010B514A30FCB88B06C460FC415A30FCB47
:101500000FC4184A51680C200B4603401648042BA0
:1015100016D0082B14D18B021B0F6C46E45CD26AE8
:1015200004AB1207120F9A5CC90305D500231946B4
:10153000FEF7FAFE214601E020460C4901F092FE3A
:1015400008B010BD02030405060708090A0B0C0DBC
:101550000E0F10100102030405060708090A0B0C00
:101560000D0E0F100010024000127A0000093D001D
:10157000FEB5040070D02078DC4DC0074AD0686802
:101580000007800F012807D068680007800F022835
:1015900009D16868C00306D5286880033AD5606819
:1015A0000028E7D036E06168012914D001208004CA
:1015B000002901D0052914D02A68012109048A4391
:1015C0002A602968814329606068002816D0FFF7E7
:1015D00023FE06460EE0286801210904084328601E
:1015E000F2E7296801432960F5E7FFF715FE801B44
:1015F00064286ED828688003F7D50BE0FFF70CFE4F
:10160000064604E0FFF708FE801B6428F1D828682E
:101610008003F7D420780126800700283CDA686828
:101620000007800F07D068680007800F022809D1E3
:101630006868C00306D42868800716D5E0680128CA
:101640000AD112E0E0680028286816D030432860EC
:10165000FFF7E2FD074605E043E1FFF7DDFDC01BB4
:101660000228C6D828688007F7D52868F82188435B
:101670002169C900084328600EE040084000286046
:10168000FFF7CAFD074604E0FFF7C6FDC01B0228AE
:10169000AFD828688007F7D42078000722D5E06902
:1016A0000028686A0ED030436862FFF7B5FD074630
:1016B00004E0FFF7B1FDC01B02289AD8686A8007D2
:1016C000F7D50FE0400840006862FFF7A5FD074628
:1016D00005E09DE0FFF7A0FDC01B022889D8686ADD
:1016E0008007F7D4207804274007002860DA00201C
:1016F0000190E869C00008D4E969B8060143E961CE
:10170000E969014001200091019079480168C9050B
:1017100011D40168821511430160FFF77DFD00902F
:1017200005E0FFF779FD0099401A642870D87048E9
:101730000068C005F5D5A06801280AD0002801D0AE
:10174000052810D0286A400840002862286AB8435B
:1017500001E0286A30432862A068002812D0FFF711
:101760005BFD00900AE0286A38432862F1E7FFF742
:1017700053FD0099411A5F48814249D8286A800781
:10178000F5D50DE0FFF748FD009006E0FFF744FDBA
:101790000099411A574881423AD8286A8007F5D4FF
:1017A0000198002804D0E969012000078143E9611C
:1017B0002078C00635D5606901280CD0401D686BC3
:1017C00023D038436863686B400840006863FFF7C4
:1017D00023FD064622E0686B38436863686B30433C
:1017E0006863FFF719FD064604E0FFF715FD801B4F
:1017F00002285BD8686B8007F7D5686BF8218843AF
:10180000A169C900084368630BE0B8436863F4E763
:101810004CE0FFF701FD801B022847D8686B80076A
:10182000F7D4206A00285ED069680907890F022969
:1018300042D0012636060228286805D0B043286029
:10184000FFF7EAFC044633E0B0432860FFF7E4FC0E
:10185000074604E0FFF7E0FCC01B022826D82868F2
:101860008001F7D4E86AE16A000900010843E862F0
:10187000616AA06A084369683D22120491430843E3
:101880006860286830432860FFF7C6FC044604E01F
:10189000FFF7C2FC001B022808D828688001F7D592
:1018A00021E0FFF7B9FC001B022801D90320FEBD8F
:1018B00028688001F5D416E00128F8D06868E96A44
:1018C00001221204636A02409A420AD10907E26ABD
:1018D000090F914205D10F2189040840A16A88426D
:1018E00001D00120FEBD0020FEBD0000001002401E
:1018F0000070004088130000094910B5401E88425E
:1019000001D9012010BD074C60610321081F01F0BF
:10191000C1FC0020A06107202061002010BD000054
:10192000FFFFFF0000E000E070477047F8B5026875
:101930000446D069116896689C4B05461D402023DB
:10194000002D75D0F7079A4DFF0FBC460D402F4371
:101950006DD02546C7078035002F06D0CF0504D5AA
:10196000012717622A683A432A60820708D5F207DE
:1019700006D0276802223A622A6804273A432A607E
:10198000420708D5F20706D02668042232622A6888
:10199000022632432A6002070AD50A461A406646E2
:1019A000324305D02668082232622E6816432E6024
:1019B000020508D54A0106D501222668D202326204
:1019C0002A681A432A602A68002A39D0800606D578
:1019D000880604D5616E002901D020468847286812
:1019E00021688968490602D4282108422DD0204662
:1019F00001F008FA21688868400622D5EFF31080CC
:101A0000012282F310888B68402293438B6080F31D
:101A10001088206F002814D066494163206FFFF7BB
:101A2000F9FA00280CD0206F416B08E000E012E0CA
:101A3000850610D58D060ED5616E9DE0204688473F
:101A4000F8BD2046FFF771FFF8BD2046FFF76DFF98
:101A500000202860F8BD256E012D7DD1C5067BD5FF
:101A6000CD0679D510261662226890682546400674
:101A70004035002845DA216F086840680004000CF2
:101A8000E8D02F8B8742E5D968838869202833D036
:101A9000EFF31080012181F3108811683701B943F9
:101AA000116080F31088EFF31080012181F310881A
:101AB00021688A68520852008A6080F31088EFF328
:101AC0001080012181F3108821688A684027BA4379
:101AD0008A6080F31088E36700202066EFF31080AF
:101AE000012181F3108821680A68B2430A6080F3FB
:101AF0001088206FFFF76EFA288B698B401A81B22D
:101B000031E0288B698B401A81B2688B0028A1D004
:101B100000299FD0EFF31080012585F31088156808
:101B2000FF272137BD43156080F31088EFF3108045
:101B3000012282F31088226895686D086D00956017
:101B400080F31088E367002020666066EFF3108062
:101B5000012282F3108800E009E022681368B34391
:101B6000136080F310882046FFF7DEFEF8BD0506FF
:101B700006D50D0604D5A16E002900D05EE7F8BD9C
:101B80004006FCD54806FAD52046EFF31081012423
:101B900084F3108814684025AC43146081F31088E6
:101BA00083670021816600F036F9F8BD0F08000058
:101BB00020010004F12D000810B5040003D0A06F2F
:101BC000002802D007E0012010BD0021742001553B
:101BD000204600F027F82420A06720680168490803
:101BE00049000160204601F0E5F90128ECD0606A67
:101BF000002802D0204601F063F8206841680122E5
:101C0000D20291434160206881680822914381603B
:101C100020680168012211430160204601F0B6F8F6
:101C200010BD000010B586B0044614216846FEF7CA
:101C300044FD1A49206888422DD119498A6901203A
:101C4000800302438A618A69024005924A69C000A2
:101C500002434A6149690140032005914002009016
:101C600002200190002002900320039001200490A4
:101C700009206946C006FFF7F1F9012200211B2067
:101C8000FFF72AFB1B20FFF71BFB064806490278DB
:101C9000204600F00BF806B010BD000000380140EF
:101CA00000100240380200203A02002070B5C36FD5
:101CB000202B2BD100290BD0002A09D001248368C6
:101CC0002403A34206D10369002B03D1CB0701D023
:101CD000012070BD034660331C7D012C16D0012409
:101CE0001C7500230366046863681B020BD5EFF3C1
:101CF0001083012585F3108825680126B606354333
:101D0000256083F3108801F0E3F970BD022070BDF7
:101D100070B50A4D0024AE1C04E0315D686800F027
:101D200017FB641C28788442F7DB04492A78891C55
:101D30000348FFF7BBFF0028F7D170BD3802002031
:101D4000E4020020FFB50446806F83B017460D46BD
:101D500020285ED1002D0AD0002F08D0A168C00134
:101D6000814207D12069002804D1E80702D0012070
:101D700007B0F0BD204660300090007D012848D0BB
:101D80000098012101750020802108512120A067C1
:101D9000FFF742FA264640360190378277820120CB
:101DA000A1680003814202D12069002805D02F4696
:101DB000002500990020087511E00027F9E70022AE
:101DC0008021204601F0D2F9002815D1002F15D02E
:101DD0002168387808857F1C708A401E7082708A5E
:101DE000019B002806980090E9D10022402120465E
:101DF00001F0BCF9002808D00320B9E72888216841
:101E0000C005C00D0885AD1CE6E72020A0670020B6
:101E1000AEE70220ACE77047FEE70000F3B51E4DC9
:101E200085B02E4668700C36044630700621304668
:101E3000FFF7BAF8010AB171F0710121102000F02A
:101E4000B4FA6860069800F0A1F814216846FEF71D
:101E500034FC01200190002001260927F60202909F
:101E6000FF060390009669463846FFF7F7F8002210
:101E700031463846FFF7C9F92A78A91C0748FFF709
:101E800015FF00F00FFAA860214605A0069A00F0A1
:101E90000FFB07B0F0BD000038020020E402002074
:101EA0004D4F544F5220343835414444523A256402
:101EB0002C42415544524154453A25640D0A0000D4
:101EC000F8B568211948FEF7F8FB184C0120A085E9
:101ED0000220E0850926F60626621020666220862A
:101EE0000025A66265602570114F25613946284698
:101EF0006561FEF75DFE2046042140300184082123
:101F0000418466652021A6658184E6652038A56345
:101F10000575656439460120A564FEF749FE002079
:101F200000F020FC012000F01DFCF8BD4C02002058
:101F3000B80B000010B50446FEF73EFB01462046F4
:101F400000F020F810BDFFB5002581B01E460C46FC
:101F50002F4613E02068401CFF2807DB0198FFF79D
:101F6000E9FFFF210198FEF7A6FB2760226801998F
:101F7000039888542068401C6D1C2060B542E9DB42
:101F800005B0F0BD10B500F085FB10BD10B50C49D3
:101F90000A4A0A60486000208860C8600861886159
:101FA000C8610C2208624A6148620846FFF704FED5
:101FB000002802D00420FEF763FF10BD0038014066
:101FC000E402002010B5044608481346407820700B
:101FD0006170A01C04221946FEF710FB0621204662
:101FE000FEF7E2FF010AA171E07110BD3802002086
:101FF000F0B504468BB00020039004900F46059086
:1020000006900790089009901820244960431646CE
:1020100045182A7B012A28D0022A28D0032A2BD04F
:10202000042A2BD01EA103A8FEF700FAAA7B012ADE
:1020300026D0022A26D01DA108A8FEF7F7F96A7D4E
:10204000012A24D0022A24D018A106A8FEF7EEF90E
:1020500006AA08A903A86D4607C5234615A231465E
:102060003846FEF7F7F90BB0F0BD1BA100E01CA14C
:1020700003A8FEF7DBF9D9E71CA1F9E71DA1F7E7F3
:102080001FA100E020A108A8FEF7D0F9D7E71CA106
:1020900000E01DA106A8FEF7C9F9D9E7B4020020A7
:1020A0004552524F523A2564000000004552523AC0
:1020B000256400004D4F544F525F25643A535441FC
:1020C0005455533A25732C484947483A25732C4CAC
:1020D0004F573A257300000053544F505045440069
:1020E00053544F5050494E4700000000464F52573E
:1020F000415244004241434B5741524400000000CA
:1021000049444C450000000052454143480000004E
:10211000F0B54B4C87B0494B08220121207800F0E4
:102120005BFA484B08220321207800F055FA464B11
:1021300008220521207800F04FFA00F0D1F9434C35
:102140000126A6736675424F0220276020816760D2
:1021500066810025657326736574E573257425759E
:10216000A5742046E5742030867109214673C9069E
:102170008022A1612284E161402161844571067160
:102180004572C571057205738572C5721421684662
:10219000FEF793FA2F48426971040A43426142698B
:1021A0000A400592426949000A434261406901962A
:1021B0000840059002200090694602960395384633
:1021C000FEF74CFF608901960296039500906946E0
:1021D0006068FEF743FF208C032501960296039565
:1021E00000906946A069FEF739FF608C019602965F
:1021F000039500906946E069FEF730FF21890122CE
:102200002068FFF702F8618901226068FEF7FDFF90
:10221000218C0122A069FEF7F8FF618C0122E069A0
:10222000FEF7F3FF0C4A00210120FEF79BFE0B4A4C
:1022300000210120FEF796FE07B0F0BD210C00083A
:1022400039020020A10C0008DD0B0008B4020020B8
:102250000004004800100240712C00087B2C00088C
:10226000F8B504464068154680002268001D0E46F9
:10227000002A14D001461046FDF7FDFF20602846D5
:10228000FDF7A2FF07462A463146FEF7B7F903CC11
:10229000083C890047506068401C6060F8BDFDF74D
:1022A00093FFEBE710B50820FDF78EFF00210160DA
:1022B000416010BD70B5054600F038F8040002D545
:1022C0000220FEF7DDFD2146284600F001F870BD32
:1022D00070B50D00044602D46068A84202DC0120FB
:1022E000FEF7CEFD2068A900415805E0A800031DB7
:1022F00022686D1CD35813506068401EA842F5DC5C
:102300006068401E60600846FDF78FFF60688100CE
:10231000206803D0FDF7AFFF206070BDFDF785FF9B
:102320000020F9E7006889004058704770B50346FF
:102330000020C04300225C6807E01D689600AD598C
:102340008D4201D1104670BD521C9442F5DC70BD27
:1023500070B50D46044600F043F8002801D0002077
:1023600070BDA188A0684554A088401C80B2A080A0
:102370002188884201D30020A080012070BD10B5C3
:102380000C46034600F063F8A04201D8002010BDBF
:1023900058881A88001980B29968824201D8801A38
:1023A00080B2DA884243501810BD70B505460E461B
:1023B0000C20FDF709FF0580044675432846FDF70C
:1023C00003FFA06000206080A080E680204670BDF2
:1023D00041888088814201D10120704700207047E8
:1023E00081880288491C89B28A4200D8002140882D
:1023F000884201D10120704700207047F8B5174688
:102400000E46044600F023F8B04201D20020F8BD89
:10241000002F11D0A068002500900BE06088218873
:102420004019814200DC401AE188414300980818B5
:10243000B8476D1CB542F1DB6088801980B26080BE
:102440002188884201D3401A60800120F8BD82882B
:1024500041888A4201D3501A02E000881018401ABD
:1024600080B27047F7B50E460446FFF7F0FF01460D
:102470000298814201D20020FEBD00276588E088D5
:10248000A1680CE0E2883046FEF7B8F820886D1CA1
:102490007F1CA84200DC0025E088A16886196843FB
:1024A000091802988742EDDB0120FEBDFEE700001F
:1024B0000FB400B5C1B0FF2101316846FEF7FDF849
:1024C00043A9064B6A46429800F092F96846FFF726
:1024D00031FD41B008BC04B018470000471F000898
:1024E00030B587B014216846FEF7E7F82548426901
:1024F000012149040A43426142690A400592426946
:1025000049000A43426140690925084005903F207F
:1025100000900220029000200124ED060390019417
:1025200069462846FEF79AFD002210212846FEF74C
:102530006CFE002201212846FEF767FE00220221E0
:102540002846FEF762FE002220212846FEF75DFEA7
:10255000002204212846FEF758FE002208212846C2
:10256000FEF753FEFFF7ACFC074A00216420FEF79C
:10257000F9FC064A00216420FEF7F4FC04480470CC
:1025800007B030BD00100240852C00088F2C0008D9
:102590003402002010B50D480078002815D00C48F2
:1025A00000224168491C4160C369994200D34260DE
:1025B000816B491C8163036D994200D382630020C3
:1025C000FEF7EAFB0120FEF7E7FB10BD3402002016
:1025D0004C020020704700001CB5FF2903D30520E2
:1025E000FEF74EFC1CBD6C4620706170A270044862
:1025F0000193082269468068FFF732FE1CBD000087
:102600003802002010B50446082100F043F82046A7
:10261000FDF70BFE10BD000000B51348A1B0007817
:1026200000281FD040216846FEF747F83F22694640
:102630000020FFF7DDFC0DA0FFF73AFF694612A06E
:10264000FFF736FF402110A8FEF737F83F2210A908
:102650000120FFF7CDFC10A90BA0FFF729FF03A075
:10266000FFF726FF21B000BD0C0000202B2D2D2DE3
:102670002D2D2D2D2D2D2D2D2D2D2D2D2D2D2D2D8A
:102680002D2D2D2D2D0D0A007C25730D0A00000027
:1026900070470000F8B5012209270C460546D6020E
:1026A000FF0631463846FEF7B0FD0A20FEF7D6FB9E
:1026B000234632204343A2B229460648FFF742FB95
:1026C0000A20FEF7CBFB002231463846FEF79DFD7F
:1026D000F8BD0000E4020020F8B50F46054634209E
:1026E0000949684344181646A18D0022206AFEF766
:1026F0008CFDE18D0122606AFEF787FD3246394686
:10270000284600F04BF8F8BD4C020020F8B50F4603
:10271000054634200949684344181646A18D012214
:10272000206AFEF772FDE18D0022606AFEF76DFD02
:1027300032463946284600F031F8F8BD4C020020F8
:1027400010B5044600F00EF8002C05D0034A012114
:10275000C820FEF707FC10BD014AF8E7510E00083B
:10276000450E000810B534220A4B42430021D4180C
:10277000E160A16021610849FEF71AFAA18D0022EB
:10278000206AFEF742FDE18D0022606AFEF73DFD02
:1027900010BD00004C020020B80B0000F8B50E463A
:1027A000054634200A49684344181746294609A0BB
:1027B000A268FFF77DFE00202061E0607D20C00060
:1027C0004643676109492846A660FEF7F1F9F8BD5E
:1027D0004C02002050574D5F25643A5354415254E7
:1027E0002C46554C4C3A25640D0A0000B80B0000ED
:1027F000FFB593B000251E4604460495089506953E
:102800003AE0252A33D101200590002004E0039905
:102810000A2251430818303803906078641C01463E
:1028200030390929F3D920782E2804D16078641C26
:1028300030380928FAD9641E6778641C642F21D0C7
:10284000692F1FD0662F5ED0462F5CD0782F2CD0FA
:10285000582F2CD06F2F41D0622F3FD0702F3DD0FA
:10286000752F3BD0632F67D0732F6AD03A46012370
:1028700008A91598B047641C2278002AC1D108988D
:1028800017B0F0BD14980A2302C81490059812914D
:102890000090012212A909A8FEF740FA09A90D1813
:1028A0000490582F03D0782F10D100200590149851
:1028B000102302C81490059806910090002206A9E2
:1028C00009A8FEF72BFA09A90D1804906F2F05D05F
:1028D000622F03D0702F01D0752F14D114986F2F51
:1028E00002C80691149018D0622F18D0702F18D0FB
:1028F0000A2305980090002206A909A8FEF70EFAFF
:1029000009A90D18049004990398431A202208A9D4
:102910001598B047002D0BD1ADE70823E9E7022356
:10292000E7E71023E5E7012308A96D1E1598B047D6
:102930002A78002AF7D19EE714980278001D149097
:1029400095E7149880C81490002F94D03846FDF76E
:1029500033FE039904900B1A202208A9159803E06E
:10296000012308A97F1C1598B0473A78002AF7D1AF
:1029700081E710B5FEF756FC00F08EF9FFF70AFE6E
:1029800010BD000010B5084806490068FDF797FE25
:10299000FEF7B2FF002800D0FEE7044900200860DF
:1029A00010BD0000A08601001C00002000000020D7
:1029B00030B595B030216846FDF77FFE00240D94B8
:1029C000129401200E940390139410200994022570
:1029D00004900F9405200095C0040C9410940A9064
:1029E000119408950B946846FEF7C2FD002802D0AA
:1029F0000320FEF745FA07200C900E9401210D9557
:102A00000F940CA8FEF7E0FC002802D00320FEF78C
:102A100037FA20201090129410A8FEF761FC0028CD
:102A200002D00320FEF72CFA15B030BD704700002D
:102A3000F0B585B0304C45E06068FFF708FD04282C
:102A400040D900216068FFF79AFC054601216068C3
:102A5000FFF795FC2E78077800253BE02946FFF725
:102A600061FC0178B14234D14178B94231D10500DD
:102A700034D06068FFF7EBFCAA78904227D3694610
:102A800026466068FFF7EEFC00282ED0A97868463D
:102A9000891EFEF789FA010AC2B2184BA8786B4466
:102AA000C35C8B421ED116496944405C904219D1E7
:102AB0006968002901D068468847A97800227068B3
:102AC000FFF79CFC6068FFF783FC0028B4D005B0DA
:102AD000F0BD6D1CA0684168A942BFDC0022012145
:102AE0006068EDE700220121E9E77068FFF7AFFCBD
:102AF00000220146E3E7000038020020FEFFFFFF4E
:102B0000FFFFFFFFF8B50646182148434049441827
:102B1000627C521C6274228908581146FEF770FBD1
:102B2000012814D0E07B401CE07325460F350322BA
:102B300029466846FDF762FD0098FEF7D5F80127A3
:102B400001282BD0022832D0032807D103E0207CB3
:102B5000401C2074E9E72846FEF7DBF8207D401C86
:102B6000207561896068FEF74BFB01282FD0A07C9F
:102B7000401CA074618A68460180A18A4180009847
:102B8000FEF7B2F81821224A71438D181235012838
:102B900021D0022828D0032838D134E0A07B012896
:102BA000D9D031461BA0FFF783FCA773D3E7A07BE6
:102BB0000228D0D031461DA0FFF77AFC0220A07376
:102BC000207B0328C7D13046FFF7BAFDC3E7E07C7E
:102BD000401CE074CEE7607D012814D0314619A076
:102BE000FFF766FC67750EE0607D02280BD031466A
:102BF00019A0FFF75DFC02206075207B042802D13C
:102C00003046FFF79DFD2846FEF783F8F8BD00002B
:102C1000B40200204D4F544F525F25643A49444C52
:102C20004520484947480D0A000000004D4F544FC9
:102C3000525F25643A524541434820484947480D70
:102C40000A0000004D4F544F525F25643A49444CEE
:102C500045204C4F570D0A004D4F544F525F25648D
:102C60003A5245414348204C4F570D0A000000009E
:102C700010B50020FFF746FF10BD10B50120FFF78B
:102C800041FF10BD10B50020FEF7A8F810BD10B52B
:102C90000120FEF7A3F810BD08480168491C016037
:102CA000642904D38168491C816000210160416866
:102CB000002902D04168491E416070470000002091
:102CC00010B5818CC90707D001684A6801235B04ED
:102CD0009A43836A1A434A60818C890707D5016841
:102CE0004A6801231B049A43C36A1A434A60818CD1
:102CF000490707D501684A6801239B049A43036B7F
:102D00001A434A60818C090707D501684A68012384
:102D1000DB039A43436B1A434A60818CC90607D58B
:102D20000268916801231B039943836B19439160E7
:102D3000818C890607D501688A6801235B039A4361
:102D4000C36B1A438A60818C490612D503685A689E
:102D500001210905046C8A4322435A60026C8A42AD
:102D600007D10268516803235B059943436C1943FB
:102D70005160818C090607D501684A680123DB048C
:102D8000806C9A4302434A6010BD0000F8B50446C7
:102D9000002680300660FEF73FFA0546206800688E
:102DA000124F000709D501212B4600224905204674
:102DB000009700F0DBF900280DD12068006840077B
:102DC0000BD501212B46002289052046009700F0F3
:102DD000CDF9002801D00320F8BD2020A067E067CE
:102DE0002666603426750020F8BD0000FFFFFF0155
:102DF00010B5406A0022014640314A834A82FEF7FC
:102E000094FD10BD10B5EFF31081012282F31088FC
:102E100002681368FF242134A343136081F31088F0
:102E2000EFF31081012282F31088026893685B0837
:102E30005B00936081F31088016E01290BD1EFF3E1
:102E40001081012282F31088026813681024A343C2
:102E5000136081F310882021C1670021016641665B
:102E600010BD70B5014640318B8BC46F0268222CB7
:102E700004D0906908210843906170BD928C446D24
:102E80001A402280426D921C42654A8B521E4A8330
:102E90004A8B002AF1D1EFF31082012383F31088CB
:102EA00003681C68FF252135AC431C6082F3108841
:102EB000EFF31082012383F3108803689C68640891
:102EC00064009C6082F310882022C2670022426660
:102ED000036E012B02D0FEF71BFF70BD0266EFF3FD
:102EE0001082012383F310880468256810239D4312
:102EF000256082F310880268D469E443E40600D4B4
:102F00001362098BFEF710FD70BD70B501464031AC
:102F10008B8BC46F0268222C04D09069082108436F
:102F2000906170BD928C1A40436D1A70426D521CB4
:102F300042654A8B521E4A834A8B002AF1D1EFF335
:102F40001082012383F3108803681C68FF25213554
:102F5000AC431C6082F31088EFF31082012383F3EB
:102F6000108803689C68640864009C6082F3108881
:102F70002022C26700224266036E012B02D0FEF7B8
:102F8000C7FE70BD0266EFF31082012383F3108841
:102F90000468256810239D43256082F31088026829
:102FA000D469E443E40600D41362098BFEF7BCFC49
:102FB00070BD000070B5044680682169E26908436D
:102FC000616900251143084321680A683C4B1A4097
:102FD00002430A6021684868032212039043E268B2
:102FE00010434860A169206A084321688A680B235E
:102FF0001B029A4302438A603248006B8007800FAD
:1030000016D0012818D0022818D0032812D0102179
:103010000120E369C0032C4A2C4E83422BD10029A6
:103020000ED002290FD004290FD008293FD110E07B
:103030000021EDE70221EBE70421E9E70821E7E7BA
:10304000FEF746FA03E0104603E0FEF751FA0028C7
:1030500031D0616840004A088018FDF730FB80B22B
:1030600001461039B14222D81849491C01400007D5
:10307000400F08431DE0002906D0022907D004298B
:1030800007D0082913D108E0FEF722FA03E0104622
:1030900003E0FEF72DFA00280DD061684A081018E9
:1030A000FDF70DFB80B201461039B14201D901256F
:1030B00001E02168C86000206066A066284670BDF7
:1030C000F369FFFF0010024000127A00EFFF0000DA
:1030D00070B54165014640310A834A830022426649
:1030E000012385681B03FF249D4204D10569002D3F
:1030F00031D11B4C2FE0002D29D08A8380210A502A
:103100002221C167EFF31081012484F31088046841
:10311000A56801263543A56081F31088816899422E
:1031200002D10169002918D00E49416674210A5460
:10313000EFF31081012282F3108800680268FF23F8
:1031400021331A43026081F31088002070BD0569A5
:10315000002D00D07F248C83D0E70349E5E70000F1
:10316000FF0100000B2F0008632E0008FFB581B09F
:1031700005461746044660350A9E55E0701C53D03C
:10318000FEF74AF80499401AB04230D8002E2ED0EB
:1031900020680168490747D5C069C043000543D48A
:1031A00001202168C0020862EFF31080012181F341
:1031B000108821680B68FF22A13293430B6080F3D3
:1031C0001088EFF31080012181F3108821688A684C
:1031D000520852008A6080F310882020A067E067C0
:1031E0008034206000202875032005B0F0BDEFF387
:1031F0001080012181F3108821680B68FF22A13221
:1032000093430B6080F31088EFF31080012181F36A
:10321000108821688A68520852008A6080F31088FA
:103220002020A067E067DDE72068C1690298884335
:1032300004D00020B842A1D00020D6E70120F9E751
:1032400010B50548FEF772FB0448054902780248AC
:10325000FEF72CFD10BD0000E40200203802002023
:103260003A020020F8B5040C8BB2264682B25E43C7
:103270000D0C1046370C5843360480190021794153
:1032800016466E43370C36048019794126466E4344
:103290008919F8BD8307FF22DB0E9A408907090EC2
:1032A0009940002808DB830809489B001B18186810
:1032B00090430843186070470007000F08388308E0
:1032C00004489B001B18D86990430843D861704795
:1032D00000E400E000ED00E0E12040027047000063
:1032E000FDF7A8FFFFF764FBFFF74CFBFDF710FEAF
:1032F000FDF75BFCFFF7F0FF0446FDF757FC2146A6
:10330000FEF78CFDFEF704FF7D20054A0021C0007A
:10331000FDF728FEFDF7C8FDFFF78AFBFAE700007E
:10332000192600080000000000000000010203044C
:103330000607080900000000010203045C330008CE
:10334000000000204C020000540B0008A4340008C8
:103350004C0200207C070000F4000008011032013C
:10336000820453127A101130313233343536373803
:10337000394142434445462808C1814001C080414B
:1033800004690C2908E918A91C091A30091638091A
:103390003660092E70092F6000FF00C0C101C30311
:1033A00002C2C60607C705C5C404CC0C0DCD0FCF9D
:1033B000CE0E0ACACB0BC90908C8D81819D91BDB0D
:1033C000DA1A1EDEDF1FDD1D1CDC14D4D515D7175D
:1033D00016D6D21213D311D1D010F03031F133F30D
:1033E000F23236F6F737F53534F43CFCFD3DFF3F5D
:1033F0003EFEFA3A3BFB39F9F83828E8E929EB2B8D
:103400002AEAEE2E2FEF2DEDEC2CE42425E527E71C
:10341000E62622E2E323E12120E0A06061A163A38C
:10342000A26266A6A767A56564A46CACAD6DAF6F1C
:103430006EAEAA6A6BAB69A9A86878B8B979BB7B8C
:103440007ABABE7E7FBF7DBDBC7CB47475B577B7DC
:10345000B67672B2B373B17170B05090915193530C
:10346000529296565797559594549C5C5D9D5F9FDC
:103470009E5E5A9A9B5B99595898884849894B8B0C
:103480008A4A4E8E8F4F8D4D4C8C4484854587479C
:103490004686824243834181804240A3018063800B
:0434A0000500000023
:04000005080000B13E
:00000001FF
