:020000040800F2
:10000000E80D0020A5010008992D0008F52400083E
:1000100000000000000000000000000000000000E0
:10002000000000000000000000000000BD2F0008DC
:100030000000000000000000CD2D0008673200081D
:10004000B701000800000000B7010008B701000870
:10005000B7010008B7010008B7010008B7010008A0
:1000600000000000B7010008B7010008B701000850
:10007000B7010008B7010008B70100080000000040
:10008000B70100080000000000000000B7010008F0
:1000900000000000B7010008B7010008B701000820
:1000A00000000000B70100080000000059390008F6
:1000B00000F002F800F04AF80CA030C80838241804
:1000C0002D18A246671EAB4654465D46AC4201D190
:1000D00000F03CF87E460F3E0FCCB6460126334278
:1000E00000D0FB1AA246AB463343184778390000CC
:1000F000B8390000103A02D378C878C1FAD852074C
:1001000001D330C830C101D504680C6070470000CD
:100110000023002400250026103A01D378C1FBD823
:10012000520700D330C100D50B60704710B5642969
:1001300002D100F0CFF910BD002010BD1FB500980E
:10014000019900F04EFB1FBD10B510BD00F02DFC55
:100150001146FFF7F3FF03F04FFC00F045FC03B43A
:10016000FFF7F2FF03BC00F075FC000070B5054618
:100170000C46164602E00FCC0FC5103E102EFAD2E8
:10018000082E02D303CC03C5083E042E07D301CCAE
:1001900001C5361F03E021782970641C6D1C761E92
:1001A000F9D270BD0748804707480047FEE7FEE7E1
:1001B000FEE7FEE7FEE7FEE704480549054A064B71
:1001C000704700001D330008B1000008E807002058
:1001D000E80D0020E8090020E809002070B5064677
:1001E00000F0E2FA056830460B30C408E400B4427F
:1001F00001D8002070BD68682A46002818D0016820
:10020000A14211D30B46214608318B4208D34368E3
:1002100001194B6003681B1B0B605160046001E017
:1002200041685160001D70BD024640680028E6D15B
:100230002146284600F0C0FA0028DCD170BD70B518
:100240000446051F00F0B0FA0068002C1AD044687C
:1002500001E020466468002C01D0AC42F9D301686B
:100260000A18AA4204D12A6805468918016000E0EC
:10027000456028684119A14205D16168696021681B
:100280004018286070BD6C6070BD70B50D460646A4
:10029000041F00F089FA0268002D09D0002E0CD04E
:1002A00028460B30C108C900A9420AD2002070BDFF
:1002B0003046FFF7C4FF002070BD2846FFF78EFFD1
:1002C00070BD23688B4208D35A1A082A25D36018B8
:1002D00004C02160FFF7B3FF1FE0506801E0024651
:1002E0004068002801D0A042F9D31D19854216D1DB
:1002F00005685B198B4212D35D1A082D0AD3456835
:1003000063185D60256800682818401A186021602D
:10031000536002E0236040685060201D70BD081FDC
:10032000FFF75CFF050007D02268211D121FFFF7B1
:100330001DFF201DFFF783FF284670BDFEB5054653
:1003400010460C46184373D0AE468C460020AD1ABA
:1003500001469C4167D36646002701243D46B61AF4
:100360009D4102D313463A462124654676462F0422
:10037000360C3E432D0CB61A9D4104D3150C1B04BC
:100380002B4312041034654676462F06360A3E4348
:100390002D0AB61A9D4104D3150E1B022B431202DF
:1003A0000834654676462F0736093E432D09B61AAE
:1003B0009D4104D3150F1B012B431201241D6546DB
:1003C0007646AF07B6083E43AD08B61A9D4104D342
:1003D000950F9B002B439200A41C65467646EF07C1
:1003E00076083E436D08B61A9D411AD392185B41B8
:1003F000641C16E00018764665464941B71A9D41CF
:100400000191009009D36046B11A98418E46844606
:10041000009801990025401C6941DD0752082A43D4
:100420005B08641EE6D57246634603B0F0BDFFE785
:1004300000200146C046C0462A462346F5E7000094
:100440000FB41CB5074B06AA7B446946009005987B
:1004500000F059FA0020694600F068FA1CBC08BC9C
:1004600004B01847E1040000F8B50E460446002029
:1004700020622046E1688847002829D0252802D03C
:100480006268A16820E0E1682046002788470500EF
:100490001ED028464138192802D80127FF022035EE
:1004A0003246204627602946FFF740FE002808D044
:1004B000012804D0F61DF608F6000836D9E7361DE7
:1004C000D7E762682846A1689047206A401CCFE7BA
:1004D000206AF8BDF7B5002575291068009914A6A3
:1004E00011D0C046C046002802DA404211A608E0FA
:1004F000009909688A0701D50FA602E0490704D5CB
:100500000EA6012501E0C046C046009F0024243706
:1005100004E000F010FA30313955641C0028F8D19D
:100520002B4632462146009800F08FF9FEBD0000B0
:10053000000000002D0000002B0000002000000043
:1005400030B5441C03E00178401C00290DD0810720
:10055000F9D10B4BDD0104C8D11A91432940FAD0DF
:10056000001B0A0603D0C01E30BD001B30BD0A04AC
:1005700001D0801E30BD0902FCD0401E30BD0000FD
:1005800001010101F8B5042A2CD3830712D00B789E
:10059000491C0370401C521E83070BD00B78491C6A
:1005A0000370401C521E830704D00B78491C037053
:1005B000401C521E8B079B0F05D0C91ADF00202359
:1005C000DE1B08C90AE0FFF7D1FDF8BD1D4608C9CA
:1005D000FD401C46B4402C4310C0121F042AF5D223
:1005E000F308C91A521EF0D40B78491C0370401C42
:1005F000521EEAD40B78491C0370401C012AE4D433
:1006000009780170F8BD01E004C0091F0429FBD27C
:100610008B0701D50280801CC90700D0027070478B
:1006200000290BD0C30702D00270401C491E0229CA
:1006300004D3830702D50280801C891EE3E70022D1
:10064000EEE70022DFE7002203098B422CD3030AE6
:100650008B4211D300239C464EE003460B433CD40F
:10066000002243088B4231D303098B421CD3030A77
:100670008B4201D394463FE0C3098B4201D3CB01A7
:10068000C01A524183098B4201D38B01C01A5241D7
:1006900043098B4201D34B01C01A524103098B42DB
:1006A00001D30B01C01A5241C3088B4201D3CB00C6
:1006B000C01A524183088B4201D38B00C01A5241A9
:1006C00043088B4201D34B00C01A5241411A00D259
:1006D00001465241104670475DE0CA0F00D04942C2
:1006E000031000D34042534000229C4603098B4232
:1006F0002DD3030A8B4212D3FC22890112BA030ABA
:100700008B420CD3890192118B4208D3890192113B
:100710008B4204D389013AD0921100E08909C309C0
:100720008B4201D3CB01C01A524183098B4201D3C2
:100730008B01C01A524143098B4201D34B01C01AAD
:10074000524103098B4201D30B01C01A5241C30825
:100750008B4201D3CB00C01A524183088B4201D394
:100760008B00C01A5241D9D243088B4201D34B00AF
:10077000C01A5241411A00D20146634652415B10F1
:10078000104601D34042002B00D5494270476346D2
:100790005B1000D3404201B50020C046C04602BDF8
:1007A0007047704770470000004870478C07002072
:1007B000704770477047704738B504460A460020B6
:1007C0006946C046C046002805D00246204600992A
:1007D00000F0CAF8012038BD10B5012000F0DEF8A5
:1007E00010BDF8B5C046C046054600200C46102096
:1007F000C0460646A819A0420DD9324669460020D7
:10080000C046C046070001D100F0C8F80098A042D9
:1008100000D00546C419FFF7C7FFF61D074605605F
:10082000F008C0004619284600F008F8B44204D089
:1008300031463868A21B00F097F8F8BD002101602E
:1008400041608060704710207047FFB504460D4638
:1008500081B0243000902168880604D51022E06918
:100860009143216000E00120A84201DD471B00E028
:1008700000270498A1697A191018081AA061207835
:10088000C00602D42046C046C046002608E00398B1
:100890006268A168805D9047206A401C761C2062D7
:1008A00004988642F3DB2078C0060AD52046C0466D
:1008B000C04606E06268A16830209047206A401C6C
:1008C000206238467F1E0028F4DC07E0009862684A
:1008D000A168405D9047206A401C206228466D1E3A
:1008E0000028F3DC2046C046C0462078000602D52A
:1008F000022005B0F0BD0120FBE7000001694A1CA1
:1009000002610878704700B58FB00291002105910F
:100910000549019379440391114604906846FFF715
:10092000A3FD0FB000BD0000E5FFFFFF0A681070D7
:10093000521C0A60704701468008081A0209101804
:10094000020A1018020C1018C00882001218520077
:10095000891A01E0401C0A390A29FBD270470000BD
:10096000004870478407002010B50346406801E046
:1009700003464068002801D08842F9D31868C3189C
:100980008B4206D0CB1CD808C000001D411A521A59
:100990000146081D0A60FFF752FC10BD10B500F0BB
:1009A00031F800F029F810BD70477546FFF7D8FF01
:1009B000AE46050069465346C008C000854618B0DB
:1009C00020B5FFF7F9FB60BC00274908B6460026B2
:1009D000C0C5C0C5C0C5C0C5C0C5C0C5C0C5C0C5EF
:1009E000403D49008D46704710B50446C046C0469C
:1009F0002046FFF7B4FB10BD10B5002801D000F071
:100A000029F810BD10B5012805D0002103A000F081
:100A100027F8012010BD09A1F8E70000534947520B
:100A2000544D454D3A204F7574206F6620686561BE
:100A300070206D656D6F7279000000003A20486586
:100A40006170206D656D6F727920636F7272757061
:100A50007465640001491820ABBEFEE72600020061
:100A600070B505460C460A2000E06D1C00F012F837
:100A7000002D06D028780028F7D102E0641C00F091
:100A800009F8002C02D020780028F7D10A2000F0C5
:100A900001F870BD08B5694608700320ABBE08BDFB
:100AA00070B58D180478401CA207920F01D102780E
:100AB000401C231106D10378401C03E00678401C3B
:100AC0000E70491C521EF9D1002B15D002780C264D
:100AD00034408A1A401C0C2C03D0A401121B9B1C0E
:100AE00008E004782402121B401CF8E714780C700C
:100AF000491C521C5B1EF9D5A942D3D3002070BDFE
:100B000070B5254C0025002842D00001411C6180B1
:100B10001030A080204808210A30FFF790FD1F48C0
:100B20000922D206FF2301460133103902600B80EF
:100B3000DB0042604B805B0082608B80C260DA0029
:100B4000CA80174A082302610B81102342614B813E
:100B5000202382618B81C2614020C8810E48801DA4
:100B6000C57045700570857000F0B4F80026F0B2CD
:100B7000002102F047FA761C082EF8DB01202070D5
:100B800001467D206570074AC00000F003FC70BD7F
:100B90006580A580BEE70000340200207C020020B2
:100BA00000040048AD330008F0B5302085B003469E
:100BB000002200901146434801F044FE0026424CBA
:100BC000019602960396042201A9608800F0D4FAE7
:100BD0003E480023009001AA1946302001F000FE93
:100BE000019602960396042201A9A08800F0C4FA97
:100BF000364800231F38009001AA1946902001F0C2
:100C0000EFFD019602962024684603960471412167
:100C100041713E278771C471042001AD2C54401CE2
:100C20000A28FBDB1F20C002002300902A46302147
:100C3000184601F0D5FD01960296684603960471A8
:100C40004D2141718771C47104202C54401C0A2825
:100C5000FBDB3F2040010023009001AA60211846E1
:100C600001F0BEFD019602966846039604714E217E
:100C700041718771C47104202C54401C0A28FBDB8D
:100C80003F2040010023009001AA9021184601F066
:100C9000A7FD0196029668460396047142214171B0
:100CA0008771C47104202C54401C0A28FBDB0848BF
:100CB0000023009001AAC021184601F091FD05B063
:100CC000F0BD00000060000834020020FFFF0000BB
:100CD00030840000F0B587B02849802002F078F811
:100CE00014216846FFF7ADFC2548426901214904FB
:100CF0000A43426142690A400592426949000A4337
:100D0000426142690A400592426909010A4342610F
:100D100040691C4E084000240125374610370590D5
:100D20006000305A00900320039001950295A000C6
:100D30003858694600F0AAFB641C082CF0DB00243C
:100D40006000315AA0003858002200F076FC641C84
:100D5000082CF5DB03240026009469460A48029615
:100D60000195039400F092FB80206A46039461C2CF
:100D70006946064800F08AFB07B0F0BD150F000871
:100D8000001002406C0200200014004800040048DB
:100D90000022835C8B4209D0521C042AF9DB00221A
:100DA000835CFF2B03D0521C042AF9DB704781546B
:100DB0007047000070B586B014216846FFF741FC0B
:100DC0001B484269012149040A43426142690A40C1
:100DD0000592426949000A43426140690024084083
:100DE0000590502009260125F606009002946946D8
:100DF00001950394304600F049FB0194029403945A
:100E00000C4C69460095204600F040FB0022012171
:100E1000204600F012FC00221021304600F00DFCAC
:100E200000224021304600F008FC06B070BD0000F2
:100E30000010024000040048F8B5012000F000FA5C
:100E40000927FF0601221021384600F0F6FB002694
:100E5000012534460121134800F0EAFB002800D1A7
:100E60002E4300224021384600F0E7FB012000F02D
:100E7000E7F901224021384600F0DFFB012000F0B5
:100E8000DFF96806050E012000F0DAF9641CE4B20F
:100E9000082CDFD300221021384600F0CEFB30466C
:100EA000F8BD00000004004830B5401EC4B2082C54
:100EB00002D32046083800E02046C5B20120082CA5
:100EC0000FD2002909D0012905D0022907D0032912
:100ED00013D1802011E020200FE010200DE04020F1
:100EE0000BE0002906D0012902D0022905D103E038
:100EF000042002E0082000E002201570187030BDC8
:100F00004079002800D00120014908707047000096
:100F10000C00002010B58478C1780279437920460E
:100F200000F030F810BD0000FEB500253F2149015A
:100F30002C4600280BD0012807D002280AD003280D
:100F40000AD130251F24E40206E0C02500E0602518
:100F50000C4601E0084C902500200190029060268C
:100F600006A101A8FFF76CFA002301AA2946304622
:100F7000009401F035FCFEBD3084000020202020CC
:100F800000000000FFB585B01F4667A001F006FF16
:100F90000020FF2101AE3154401C0428FBDB6A4CC9
:100FA0000598251D0028E07805D000280FD0AA203C
:100FB00000F0A0F920E000281ED00320FFF7B4FFC6
:100FC000E078032100F04EF90020E07014E005986D
:100FD000C1B2032000F058F9059803ABC0B202AAD1
:100FE0000321FFF761FF6A46117A127B685C1043A8
:100FF000685401A8FFF7CCFE06980028607805D059
:1010000000280FD0AA2000F075F920E000281ED09B
:101010000120FFF789FF6078012100F023F900200B
:10102000607014E00698C1B2012000F02DF9069816
:1010300003ABC0B26A460121FFF736FF6A4611785A
:10104000127B685C1043685401A8FFF7A1FE079863
:101050000028207805D000280FD0AA2000F04AF9F7
:1010600020E000281ED00020FFF75EFF207800213E
:1010700000F0F8F80020207014E00798C1B20020BA
:1010800000F002F9079802ABC0B203AA0021FFF7F3
:101090000BFF6A46117B127A685C1043685401A802
:1010A000FFF776FEA078002F05D000280FD0AA20E9
:1010B00000F020F91EE000281CD00220FFF734FFCA
:1010C000A078022100F0CEF80020A07012E0F9B262
:1010D000022000F0D9F8F8B203AB02AA0221FFF710
:1010E000E3FE6A46117A127B685C1043685401A8DB
:1010F000FFF74EFE0027F45DFF2C0CD0295D204643
:1011000001F080FF2A5D214610A001F047FE7D20FE
:10111000C00000F095F87F1C042FECDB11A001F05B
:101120003DFE09B0F0BD0000626567696E20436F47
:101130006E6E65637441424D4E52656C61794E6FBF
:10114000733A0D0A000000003A0200205345542073
:10115000494E4445583A25642C53544154453A2548
:10116000580D0A000D0A454E4420434F4E4E204173
:10117000424D4E0D0A000000FEB514460D460246D3
:101180000FA16846FFF75CF96846FFF7D9F9C1B2CD
:1011900060084A08801AC2B20020531820266F4601
:1011A0000AE0904201D3834201D82E5402E0811A12
:1011B000795C2954401CC0B2A042F2D3FEBD0000AD
:1011C00025640000F8B500260670441C30200D6828
:1011D0001F46002A14D0002D14D039462846FFF7A8
:1011E0003CFA01467843281A02D5C043313000E06A
:1011F00030302070641C761C0D460029EDD11DE0B6
:10120000002D02D120700120F8BD39462846FFF795
:101210001AFA01467943691A0A2901D2303107E0E6
:10122000069A002A01D0412200E0612251180A39B1
:101230002170641C761C05460028E6D13046F8BDB6
:1012400001B500986421484300F002F808BD000091
:1012500001B503480099416041680029FCD108BDEF
:10126000000000201CB501AB6A46FFF71DFE6B466F
:10127000044A18781B79115C9943115401F0C2FE9D
:101280001CBD00003E0200207FB50A4600253F211C
:1012900049012C4600280CD0012807D002280AD08A
:1012A00003280AD130251F24E40206E0C0250E4C95
:1012B00003E0602500E090250C460C4878268078F5
:1012C0000BA11018401EC2B20020019002900390A2
:1012D00001A8FFF7B5F8002301AA2946304600947B
:1012E00001F07EFA7FBD000030840000340200204F
:1012F0002564000002460348017803A001F04EFD7A
:1013000072B6FEE75D02002053543A25642C455224
:1013100052434F44453A25640D0A0000F8B50025B4
:10132000164F25E016490E68294601F071FC044667
:101330000068B04201D8301A01E0301A401EA1689E
:10134000814214D2E068002804D06169002905D0E8
:10135000884703E02069002800D080472660207974
:10136000002804D02146386801F01AFC00E06D1C0A
:1013700038684168A942D5DCF8BD00002000002093
:101380000800002010B501F003FC0149086010BD01
:101390002000002010B586B0002A16D00C4B0D4C52
:1013A0001B68009300230492029005936846017124
:1013B000039318226946206801F0C8FB2068416841
:1013C000491E01F025FC06B010BD0020FBE700001F
:1013D0000800002020000020F0B5094EFF23002265
:1013E000F71D1D46F93705E0845C5C40335D6B40BA
:1013F0003D5D521C8A42F7DB18022843F0BD000015
:101400003400002030B5014620314B780022022BF9
:1014100004D0042383630A70012030BD03681C6874
:101420000E25AC431C6003681C68640864001C60E3
:101430000123056C1C46C06BAC4044604B700A70C5
:10144000002030BD70B50024014620314A78022AC0
:1014500003D004218163012416E0026813680E257D
:10146000AB431360026813685B085B0013600122E2
:10147000056C1346AB40C56B6B604A7000220A7066
:10148000416B002900D08847204670BDF8B5002385
:1014900003240125BAE02E469E40B44632407CD05B
:1014A0000E79B607B60F012E01D0022E17D186682D
:1014B0002746B6465E00B74000967646BE43B6461F
:1014C000CF68009EB74076463743876046686746D8
:1014D000BE430F79FF06FF0F9F40374347600E79E9
:1014E000F643B6070ED0C6682746B4465E00B64639
:1014F000B7406646BE43B4468F687646B7406646F8
:101500003743C7600E79B607B60F022E14D1DE0836
:10151000B60036180096366A5F07B446FE0E0F27EF
:10152000B646B7406646BE43B4460F697646B740F6
:1015300066463743009E376206682746B4465E001B
:10154000B646B7406646BE430F79B446BF07BF0FE5
:101550007646B7406646374307604E68B603B60F17
:1015600053D02D4FBE692E43BE61BE699F08F6075A
:10157000F60F2A4EBF00BE190096B6680F27B44674
:101580009E07360FB646B7406646BE430927FF069C
:10159000B446B84202D1002710E036E0204FB842EE
:1015A00001D101270AE01F4FB84201D1022705E00F
:1015B0001D4FB84201D1032700E005277646B7400A
:1015C00066463743009EB760184E36684F689643AC
:1015D000FF0300D51643154F3E607E684F68964363
:1015E000BF0300D51643114F7E60BE684F68964317
:1015F000FF0200D516430D4FBE60FE684F6896434C
:10160000BF0200D51643094AD6605B1C0A6816461D
:10161000DE4000D03FE7F8BD00100240000001406E
:101620000004004800080048000C00480004014085
:101630000069084000D001207047002A01D0816174
:101640007047816270470000014880687047000061
:101650001000002002488168027889188160704774
:101660001000002010B506480168102211430160E7
:10167000032000F007F800F027F8002010BD00005C
:101680000020024070B504460D4D7D202978C00031
:10169000FEF7D9FF01460B480068FEF7D4FF00F0C3
:1016A00099FC002809D1042C07D200222146401EB3
:1016B00000F02AF800206C6070BD012070BD0000B1
:1016C000100000201C00002008B508488169012294
:1016D00011438161816911400091C26901040A438B
:1016E000C261C0690840009008BD000000100240BF
:1016F000002805DBC106C90E0120884001490860A9
:101700007047000000E100E010B502F04FF910BD95
:10171000F8B505460068354CC00352D5E06900268F
:10172000C00007D4E16920040143E161E16901409F
:10173000012600912E480168C90510D40168821560
:1017400011430160FFF780FF074604E0FFF77CFFCD
:10175000C01B642824D826480068C005F6D5206A36
:1017600003273F02384020D06968394081421CD0AD
:10177000206A226AB843012109040A432262226ACC
:101780008A4322622062C0070FD0FFF75DFF0090FE
:1017900008E0FFF759FF0099411A1648814201D924
:1017A0000320F8BD206A8007F3D5206A6968B84332
:1017B00008432062002E04D0E16901200007814324
:1017C000E1612878C00705D0206BA96880088000F7
:1017D000084320632878800605D5206B10218843B4
:1017E000E968084320630020F8BD000000100240B3
:1017F0000070004088130000F8B50F46060059D06D
:101800003A4D2868C007C00FB84209D2286840087E
:101810004000384328602868C007C00FB84249D14B
:101820003068334C81070CD5400704D56068072128
:101830000902084360606068F0218843B16808438A
:1018400060603078C00726D0706801280ED021680B
:1018500002280ED0890700292CDA616889088900DE
:1018600001436160FFF7F0FE00900DE021688903FD
:10187000F1E78901EFE7FFF7E7FE0099411A1D48FC
:10188000814201D90320F8BD60680C2108407168CD
:1018900089008842EFD12868C007C00FB8420BD931
:1018A000286840084000384328602868C007C00FF7
:1018B000B84201D00120F8BD3078400706D56068F5
:1018C000072109028843F1680843606000F028F8A6
:1018D0006168094A0906090F515CC8400749086058
:1018E0000320FFF7CFFE0020F8BD000000200240DB
:1018F00000100240881300004C3A00081C00002031
:101900000448054900684968044A4905490F515C83
:10191000C84070471C000020001002405C3A0008DC
:1019200010B514A30FCB88B06C460FC415A30FCB12
:101930000FC4184A51680C200B4603401648042B6C
:1019400016D0082B14D18B021B0F6C46E45CD26AB4
:1019500004AB1207120F9A5CC90305D50023194680
:10196000FEF7ECFC214601E020460C4902F006F8A7
:1019700008B010BD02030405060708090A0B0C0D88
:101980000E0F10100102030405060708090A0B0CCC
:101990000D0E0F100010024000127A0000093D00E9
:1019A000FEB5040070D02078DC4DC0074AD06868CE
:1019B0000007800F012807D068680007800F022801
:1019C00009D16868C00306D5286880033AD56068E5
:1019D0000028E7D036E06168012914D00120800496
:1019E000002901D0052914D02A68012109048A435D
:1019F0002A602968814329606068002816D0FFF7B3
:101A000023FE06460EE028680121090408432860E9
:101A1000F2E7296801432960F5E7FFF715FE801B0F
:101A200064286ED828688003F7D50BE0FFF70CFE1A
:101A3000064604E0FFF708FE801B6428F1D82868FA
:101A40008003F7D420780126800700283CDA6868F4
:101A50000007800F07D068680007800F022809D1AF
:101A60006868C00306D42868800716D5E068012896
:101A70000AD112E0E0680028286816D030432860B8
:101A8000FFF7E2FD074605E043E1FFF7DDFDC01B80
:101A90000228C6D828688007F7D52868F821884327
:101AA0002169C900084328600EE040084000286012
:101AB000FFF7CAFD074604E0FFF7C6FDC01B02287A
:101AC000AFD828688007F7D42078000722D5E069CE
:101AD0000028686A0ED030436862FFF7B5FD0746FC
:101AE00004E0FFF7B1FDC01B02289AD8686A80079E
:101AF000F7D50FE0400840006862FFF7A5FD0746F4
:101B000005E09DE0FFF7A0FDC01B022889D8686AA8
:101B10008007F7D4207804274007002860DA0020E7
:101B20000190E869C00008D4E969B8060143E96199
:101B3000E969014001200091019079480168C905D7
:101B400011D40168821511430160FFF77DFD0090FB
:101B500005E0FFF779FD0099401A642870D87048B5
:101B60000068C005F5D5A06801280AD0002801D07A
:101B7000052810D0286A400840002862286AB84327
:101B800001E0286A30432862A068002812D0FFF7DD
:101B90005BFD00900AE0286A38432862F1E7FFF70E
:101BA00053FD0099411A5F48814249D8286A80074D
:101BB000F5D50DE0FFF748FD009006E0FFF744FD86
:101BC0000099411A574881423AD8286A8007F5D4CB
:101BD0000198002804D0E969012000078143E961E8
:101BE0002078C00635D5606901280CD0401D686B8F
:101BF00023D038436863686B400840006863FFF790
:101C000023FD064622E0686B38436863686B304307
:101C10006863FFF719FD064604E0FFF715FD801B1A
:101C200002285BD8686B8007F7D5686BF82188437A
:101C3000A169C900084368630BE0B8436863F4E72F
:101C40004CE0FFF701FD801B022847D8686B800736
:101C5000F7D4206A00285ED069680907890F022935
:101C600042D0012636060228286805D0B0432860F5
:101C7000FFF7EAFC044633E0B0432860FFF7E4FCDA
:101C8000074604E0FFF7E0FCC01B022826D82868BE
:101C90008001F7D4E86AE16A000900010843E862BC
:101CA000616AA06A084369683D22120491430843AF
:101CB0006860286830432860FFF7C6FC044604E0EB
:101CC000FFF7C2FC001B022808D828688001F7D55E
:101CD00021E0FFF7B9FC001B022801D90320FEBD5B
:101CE00028688001F5D416E00128F8D06868E96A10
:101CF00001221204636A02409A420AD10907E26A89
:101D0000090F914205D10F2189040840A16A884238
:101D100001D00120FEBD0020FEBD000000100240E9
:101D20000070004088130000F8B504000CD0606A11
:101D3000002500280AD02561656126464036A56247
:101D4000707F002808D00BE00120F8BD6168C81F33
:101D5000FD38F2D0E561F0E73577204600F05CF819
:101D600002227277206801684023994301600723AB
:101D7000E1681B02994201D9002001E00120000323
:101D80000F273F02B94202D0994200D0A562FF233B
:101D90006168053319402127A368BF023B401943FE
:101DA00023691340227D1943D207D20F1143012327
:101DB000A2695B021A401143E26938231A401143B9
:101DC000226A80231A401143A26A9B011A401143E0
:101DD00022681160A1690422090C1140626A102373
:101DE0001A401143626B08231A4011430F23E26823
:101DF0001B021A40114301221203104001432068C4
:101E000041602068C16952109143C161256601207B
:101E100070770020F8BD000010B586B0044614218C
:101E20006846FEF70EFC1149206888421CD1104814
:101E3000826981140A43826182690A40059242697B
:101E400049010A434261406908400590A020009082
:101E500002200190029003200390002004900920AA
:101E60006946C006FFF712FB06B010BD0030014006
:101E700000100240FFB5054604464035287F002784
:101E800081B01646012809D001202877FFF7DCFB36
:101E90000090687F012804D0022795E0022005B059
:101EA000F0BD0298002872D0002E70D00320687711
:101EB000002020660299A163A687E6872064A88097
:101EC000E8802065E0640122A068D20340219042AE
:101ED00008D1206802688A430260206802680B0209
:101EE0001A43026020680268520602D402680A435C
:101EF00002600721E06809028842606826D900284C
:101F000001D0012E1ED1A06B21680088C86006E0B8
:101F100020688168890709D5A16B0988C160A06B19
:101F2000801CA063E08F401EE0870BE0FFF78CFB76
:101F30000099411A0498814202D3401C02D039E032
:101F4000002837D0E08F0028E2D126E0002801D019
:101F5000012E1FD1A06B21680078087306E020686D
:101F60008168890709D5A16B09780173A06B401CB2
:101F7000A063E08F401EE0870CE0FFF765FB00994F
:101F8000411A0498814203D3401C03D012E01AE0A6
:101F900000280FD0E08F0028E1D12046009A049954
:101FA00000F01DFF002801D020202066A068002836
:101FB00002D005E0032707E02068C1688068009030
:101FC000206E002800D001270120687700202877A4
:101FD000384664E7094910B5401E884201D90120FE
:101FE00010BD074C60610321081F01F0DFFC0020D9
:101FF000A06107202061002010BD0000FFFFFF004E
:1020000000E000E070477047F8B502680446D06908
:10201000116896689C4B05461D402023002D75D005
:10202000F7079A4DFF0FBC460D402F436DD0254654
:10203000C7078035002F06D0CF0504D501271762CA
:102040002A683A432A60820708D5F20706D0276833
:1020500002223A622A6804273A432A60420708D5D6
:10206000F20706D02668042232622A68022632432A
:102070002A6002070AD50A461A406646324305D04E
:102080002668082232622E6816432E60020508D5A3
:102090004A0106D501222668D20232622A681A4312
:1020A0002A602A68002A39D0800606D5880604D519
:1020B000616E002901D02046884728682168896818
:1020C000490602D4282108422DD0204601F026FAE4
:1020D00021688868400622D5EFF31080012282F340
:1020E00010888B68402293438B6080F31088206FA8
:1020F000002814D066494163206FFFF7A3F9002838
:102100000CD0206F416B08E000E012E0850610D58E
:102110008D060ED5616E9DE020468847F8BD2046AD
:10212000FFF771FFF8BD2046FFF76DFF0020286024
:10213000F8BD256E012D7DD1C5067BD5CD0679D59F
:102140001026166222689068254640064035002811
:1021500045DA216F086840680004000CE8D02F8B36
:102160008742E5D968838869202833D0EFF310804F
:10217000012181F3108811683701B943116080F3A0
:102180001088EFF31080012181F3108821688A689C
:10219000520852008A6080F31088EFF3108001210A
:1021A00081F3108821688A684027BA438A6080F3E7
:1021B0001088E36700202066EFF31080012181F38F
:1021C000108821680A68B2430A6080F31088206F83
:1021D000FFF718F9288B698B401A81B231E0288B00
:1021E000698B401A81B2688B0028A1D000299FD04A
:1021F000EFF31080012585F310881568FF2721373C
:10220000BD43156080F31088EFF31080012282F344
:102210001088226895686D086D00956080F31088BD
:10222000E367002020666066EFF31080012282F3EE
:10223000108800E009E022681368B343136080F35C
:1022400010882046FFF7DEFEF8BD050606D50D0610
:1022500004D5A16E002900D05EE7F8BD4006FCD58C
:102260004806FAD52046EFF31081012484F3108844
:1022700014684025AC43146081F310888367002103
:10228000816600F036F9F8BD0F0800002001000457
:102290000935000810B5040003D0A06F002802D053
:1022A00007E0012010BD002174200155204600F0F8
:1022B00027F82420A06720680168490849000160C8
:1022C000204601F003FA0128ECD0606A002802D011
:1022D000204601F081F8206841680122D202914332
:1022E000416020688168082291438160206801680C
:1022F000012211430160204601F0D4F810BD000016
:1023000010B586B0044614216846FEF79AF91A49BA
:10231000206888422DD119498A690120800302432F
:102320008A618A69024005924A69C00002434A6193
:10233000496901400320059140020090022001906C
:102340000020029003200390012004900920694698
:10235000C006FFF79BF8012200211B20FFF7D4F9EC
:102360001B20FFF7C5F9064806490278204600F011
:102370000BF806B010BD000000380140001002400C
:102380005C0200205E02002070B5C36F202B2BD1B1
:1023900000290BD0002A09D0012483682403A3421A
:1023A00006D10369002B03D1CB0701D0012070BDFA
:1023B000034660331C7D012C16D001241C750023BC
:1023C0000366046863681B020BD5EFF310830125D5
:1023D00085F3108825680126B6063543256083F30A
:1023E000108801F001FA70BD022070BD70B50A4D71
:1023F0000024AE1C04E0315D686800F01FFC641C22
:1024000028788442F7DB04492A78891C0348FFF7BF
:10241000BBFF0028F7D170BD5C0200200003002044
:10242000FFB50446806F83B017460D4620285ED165
:10243000002D0AD0002F08D0A168C001814207D129
:102440002069002804D1E80702D0012007B0F0BDC0
:10245000204660300090007D012848D0009801217E
:1024600001750020802108512120A067FFF7ECF8BA
:10247000264640360190378277820120A16800030A
:10248000814202D12069002805D02F4600250099FD
:102490000020087511E00027F9E70022802120467E
:1024A00001F0F0F9002815D1002F15D021683878F7
:1024B00008857F1C708A401E7082708A019B0028EC
:1024C00006980090E9D100224021204601F0DAF977
:1024D000002808D00320B9E728882168C005C00D6E
:1024E0000885AD1CE6E72020A0670020AEE70220AB
:1024F000ACE77047FEE7000010B511480F490160D6
:10250000FF21053141600121C903816007210902D2
:10251000C160002101614161C16101220162520279
:102520004162826181620721C162FFF7FDFB0028E1
:1025300002D08220FEF7DEFE10BD00000030014018
:102540009C020020F3B5224E85B0344670700834EA
:102550000546207006212046FEF73EFF010AA171C4
:10256000E0710121102000F096FB7060069800F0E9
:10257000D1FA14216846FEF764F802200090012089
:102580000024144F01900294694603943846FEF7E4
:102590007DFF002202213846FFF74FF83278B11C48
:1025A0000D48FFF7F1FE0C49002084318200401CE9
:1025B00080B28C50FF28F9D9FF2208489200885039
:1025C000294607A0069A00F0E9FB07B0F0BD00001D
:1025D0005C0200200004004800030020010F0008F6
:1025E0004844455020343835414444523A25642CFF
:1025F00042415544524154453A25640D0A000000B9
:1026000010B50446FDF79CFF0146204600F07DFA18
:1026100010BDFFB5002581B01E460C462F4613E0C5
:102620002068401CFF2807DB0198FFF7E9FFFF2126
:102630000198FEF704F827602268019903988854EE
:102640002068401C6D1C2060B542E9DB05B0F0BD80
:10265000F8B504461D4616460F462A2000F043F9F9
:10266000204600F00FF9304600F00CF92B2000F066
:102670003AF9384600F006F9284600F003F92C2014
:1026800000F031F9F8BD000070B50646F0221146A1
:102690000DA000F083FBEF2300211A460846FFF748
:1026A000D7FF00240025304600F0ECF86D1CADB2D9
:1026B000F02DF8D3641CA4B2F02CF3D3F022114611
:1026C00007A000F06BFB70BD424547494E204C43CC
:1026D000445F434C4541522025642025640D0A0087
:1026E0004C43445F434C4541522025642025640DF2
:1026F0000A000000F0B587B014216846FDF7A1FF7D
:1027000015484269012149040A43426142690A406D
:102710000592426949000A43426140690325084025
:1027200005900F20012402266A46039551C209270D
:10273000FF0669463846FEF7A9FEA0206A460395C3
:1027400051C269463846FEF7A1FE012202213846F1
:10275000FEF773FF07B0F0BD0010024031B57D24D5
:10276000E4002346012269460248FFF783FB002864
:10277000F7D138BD9C020020FFB581B01446D8289F
:1027800028D8C02926D80A462F3293B202461732DB
:1027900092B2FFF75DFF90210F484C4325180026A9
:1027A00001270091002428783946A140084201D031
:1027B0000A9804E00498002803D10848008800F033
:1027C00061F8641CE4B2082CEDD300986D1C761CF3
:1027D0008642E7DB05B0F0BD807200085802002099
:1027E000FFB581B016460D46044624E0D82C02D928
:1027F00000243035ADB2C02D05D900241F20254658
:10280000C002FFF741FF317800200D4B02469F5C6C
:102810008F4201D1104603E0521CD2B2122AF6D3E5
:1028200002460A98009029462046049BFFF7A4FF21
:102830001834A4B2761C30780028D7D105B0F0BD8A
:1028400046020020F8B50446069F1D46D019401EDA
:1028500083B2481916468C46401E82B2483431462F
:102860006046FFF7F5FE00267D4308E07700381943
:10287000407800F021F8E05D00F01EF8761CB542CB
:10288000F4DCF8BD70B509250446ED0600220221EE
:102890002846FEF7D2FE012204212846FEF7CDFE8F
:1028A000200AFFF75BFFE0B2FFF758FF0122022189
:1028B0002846FEF7C2FE70BD70B509240546E40641
:1028C000002202212046FEF7B8FE01220421204604
:1028D000FEF7B3FE2846FFF741FF01220221204602
:1028E000FEF7ABFE70BD70B509240546E406002274
:1028F00002212046FEF7A1FE002204212046FEF719
:102900009CFE2846FFF72AFF012202212046FEF7FF
:1029100094FE70BD10B5FFF7EDFEFFF7EDFD092445
:10292000E406012202212046FEF787FE012211461D
:102930002046FEF782FE012204212046FEF77DFE9E
:10294000002201212046FEF778FE1420FEF778FCD5
:10295000012211462046FEF770FE6420FEF770FC4F
:10296000012208212046FEF768FE1120FFF7BBFF79
:102970007820FEF765FC3620FFF7B5FF0020FFF753
:102980009BFF3A20FFF7AFFF5520FFF795FFB220DE
:10299000FFF7A9FF0C20FFF78FFF0C20FFF78CFF3C
:1029A0000020FFF789FF3320FFF786FF3320FFF772
:1029B00083FFB720FFF797FF3520FFF77DFFBB2090
:1029C000FFF791FF3220FFF777FFC220FFF78BFF61
:1029D0000120FFF771FFC320FFF785FF1920FFF7E4
:1029E0006BFFC420FFF77FFF2020FFF765FFC620A5
:1029F000FFF779FF0F20FFF75FFFD020FFF773FF8E
:102A0000A420FFF759FFA120FFF756FFE020FFF7B2
:102A10006AFFD020FFF750FF0820FFF74DFF0E2080
:102A2000FFF74AFF0920FFF747FF0920FFF744FFA0
:102A30000520FFF741FF3120FFF73EFF3320FFF76E
:102A40003BFF4820FFF738FF1720FFF735FF142022
:102A5000FFF732FF1520FFF72FFF3120FFF72CFF84
:102A60003420FFF729FFE120FFF73DFFD020FFF7DB
:102A700023FF0820FFF720FF0E20FFF71DFF09208E
:102A8000FFF71AFF0920FFF717FF1520FFF714FFC4
:102A90003120FFF711FF3320FFF70EFF4820FFF72B
:102AA0000BFF1720FFF708FF1420FFF705FF152085
:102AB000FFF702FF3120FFF7FFFE3420FFF7FCFE97
:102AC0002120FFF710FF2A20FFF70DFF0020FFF75E
:102AD000F3FE0020FFF7F0FE0020FFF7EDFEEF20F1
:102AE000FFF7EAFE2B20FFF7FEFE0020FFF7E4FED3
:102AF0000020FFF7E1FE0020FFF7DEFEEF20FFF7EA
:102B0000DBFE2920FFF7EFFE10BD10B500F058FAEC
:102B100010BD000010B50C490A4A0A604860002048
:102B20008860C86008618861C8610C2208624A61D7
:102B300048620846FFF7AEFB002802D00420FEF7EB
:102B4000D9FB10BD0038014000030020F8B5044651
:102B50004068154680002268001D0E46002A14D0E9
:102B600001461046FDF791FB20602846FDF736FB35
:102B700007462A463146FDF705FD03CC083C89008F
:102B800047506068401C6060F8BDFDF727FBEBE72D
:102B900010B50820FDF722FB00210160416010BD47
:102BA00070B5054600F038F8040002D50220FEF7A3
:102BB000A1FB2146284600F001F870BD70B50D005C
:102BC000044602D46068A84202DC0120FEF792FBB2
:102BD0002068A900415805E0A800031D22686D1C6B
:102BE000D35813506068401EA842F5DC6068401E50
:102BF00060600846FDF723FB60688100206803D011
:102C0000FDF743FB206070BDFDF719FB0020F9E7DD
:102C1000006889004058704770B503460020C043E3
:102C200000225C6807E01D689600AD598D4201D115
:102C3000104670BD521C9442F5DC70BD70B50D4657
:102C4000044600F043F8002801D0002070BDA188A0
:102C5000A0684554A088401C80B2A080218888428A
:102C600001D30020A080012070BD10B50C460346A2
:102C700000F063F8A04201D8002010BD58881A88DF
:102C8000001980B29968824201D8801A80B2DA882D
:102C90004243501810BD70B505460E460C20FDF796
:102CA0009DFA0580044675432846FDF797FAA06013
:102CB00000206080A080E680204670BD418880882A
:102CC000814201D10120704700207047818802882D
:102CD000491C89B28A4200D800214088884201D12B
:102CE0000120704700207047F8B517460E4604468D
:102CF00000F023F8B04201D20020F8BD002F11D01F
:102D0000A068002500900BE060882188401981426E
:102D100000DC401AE188414300980818B8476D1C50
:102D2000B542F1DB6088801980B2608021888842DA
:102D300001D3401A60800120F8BD828841888A4210
:102D400001D3501A02E000881018401A80B2704770
:102D5000F7B50E460446FFF7F0FF014602988142A0
:102D600001D20020FEBD00276588E088A1680CE044
:102D7000E2883046FDF706FC20886D1C7F1CA842C7
:102D800000DC0025E088A1688619684309180298CC
:102D90008742EDDB0120FEBDFEE700000FB400B569
:102DA000C1B0FF2101316846FDF74BFC43A9064B3A
:102DB0006A46429800F096F96846FFF721FC41B058
:102DC00008BC04B018470000132600087047000034
:102DD000014A800011507047840300207047F8B505
:102DE0000F460B4615460092032104460022C902F5
:102DF00000F01CF82026002812D13B46002280213A
:102E00002046009500F07EF8002809D103213B46BA
:102E1000002249022046009500F008F8002803D05F
:102E2000206E304320660320F8BD0000FFB585B05A
:102E30000E460446002069460E9D17460871FEF7AF
:102E400003FC411B0898451AFEF7FEFB039020681F
:102E500023210C3002902A4800684843000D684343
:102E600046E003204002864206D1002F04D102989A
:102E700001786846017100790898401C39D0FEF746
:102E8000E3FB0399401AA84205D2002D03D0009815
:102E900000282BD02BE020684168E022914341605C
:102EA0006068C11FFD390CD10121A068C9038842A7
:102EB00002D04911884204D1206801684022914320
:102EC00001600120A16A4003814207D121680A689C
:102ED00082430A6021680A6802430A600120403484
:102EE000607700202077032009B0F0BD0025401E48
:102EF0000090206880683040B842B2D10020F3E7EB
:102F00001C000020FFB581B01E4604460A9DFEF756
:102F10009BFB401B351AFEF797FB074626480068C7
:102F20004001000D684339E0701C38D0FEF78CFB7F
:102F3000C01BA84205D2002D03D0009800282BD03A
:102F40002BE020684168E022914341606068C11F26
:102F5000FD390CD10121A068C903884202D0491172
:102F6000884204D120680168402291430160012019
:102F7000A16A4003814207D121680A6882430A603E
:102F800021680A6802430A6001204034607700200B
:102F90002077032005B0F0BD0025401E009020687A
:102FA00081680298884305D0002103988142BBD1F3
:102FB0000020EFE70121F8E71C0000207047000027
:102FC00070B50E4E0C460546012202213046FEF732
:102FD00034FB0A20FEF734F9234632204343A2B2E1
:102FE00029460748FFF71CFA0A20FEF729F90022B4
:102FF00002213046FEF721FB70BD000000040048AE
:1030000000030020F8B50D460A46044601460FA00D
:10301000FFF7C4FE284600F027F80120FEF710F95C
:10302000104E65003746A4001037715B38590122F5
:10303000FEF703FB0120FEF703F9715B385900220C
:10304000FEF7FBFA0120FEF7FBF8F8BD536574416B
:10305000424D4E506F727453617465202564202573
:10306000580D0A006C020020F8B51C4E07460022DD
:1030700002213046FEF7E1FA002201213046FEF738
:10308000DCFA0120FEF7DCF8012202213046FEF7CF
:10309000D4FA012500242F4201D0012200E00022B1
:1030A00080210F48FEF7C9FA6806050E0120FEF7D9
:1030B000C7F8012211463046FEF7BFFA0120FEF79D
:1030C000BFF8002201213046FEF7B7FA0120FEF7D3
:1030D000B7F8641CE4B2082CDDD3F8BD0014004836
:1030E00000040048FFB593B000251E460446049531
:1030F000089506953AE0252A33D101200590002055
:1031000004E003990A22514308183038039060788C
:10311000641C014630390929F3D920782E2804D1BE
:103120006078641C30380928FAD9641E6778641CFA
:10313000642F21D0692F1FD0662F5ED0462F5CD020
:10314000782F2CD0582F2CD06F2F41D0622F3FD00A
:10315000702F3DD0752F3BD0632F67D0732F6AD06F
:103160003A46012308A91598B047641C2278002A22
:10317000C1D1089817B0F0BD14980A2302C8149062
:10318000059812910090012212A909A8FEF71AF8D9
:1031900009A90D180490582F03D0782F10D10020C2
:1031A00005901498102302C8149005980691009079
:1031B000002206A909A8FEF705F809A90D18049030
:1031C0006F2F05D0622F03D0702F01D0752F14D12F
:1031D00014986F2F02C80691149018D0622F18D03F
:1031E000702F18D00A2305980090002206A909A87C
:1031F000FDF7E8FF09A90D18049004990398431AF4
:10320000202208A91598B047002D0BD1ADE708235F
:10321000E9E70223E7E71023E5E7012308A96D1E8C
:103220001598B0472A78002AF7D19EE714980278BB
:10323000001D149095E7149880C81490002F94D026
:103240003846FDF77DF9039904900B1A202208A94E
:10325000159803E0012308A97F1C1598B0473A7818
:10326000002AF7D181E710B5FEF7F4F900F0A0F8D5
:1032700010BD000010B5084806490068FDF7E3F9E5
:10328000FEF7A8FE002800D0FEE7044900200860F1
:1032900010BD0000A08601001C00002000000020DE
:1032A00030B595B030216846FDF7CBF900240D9478
:1032B000129401200E940390139410200994022577
:1032C00004900F9405200095C0040C9410940A906B
:1032D000119408950B946846FEF762FB002802D013
:1032E0000320FEF707F807200C900E9401210D959E
:1032F0000F940CA8FEF780FA002802D00320FDF7F7
:10330000F9FF20201090129410A8FEF701FA00286F
:1033100002D00320FDF7EEFF15B030BD704700006E
:103320007FB5204D204C2EE000216068FFF79DFC0A
:1033300000786178884232D16068FFF7FEFC082887
:1033400026D3082269466068FFF702FD002820D0D6
:1033500006216846FEF740F86A46010A9279C0B233
:103360008A421CD16946C979814218D168464078A1
:1033700080002958002901D068468847002208218A
:103380006068FFF7B1FC6068FFF798FC0028CBD0BD
:103390007FBD6068FFF7D1FC01460022F0E7002204
:1033A0000121EDE7840300205C020020704700004B
:1033B00008480168491C0160642904D38168491CDC
:1033C0008160002101604168002902D04168491EE6
:1033D000416070470000002010B5818CC90707D0FC
:1033E00001684A6801235B049A43836A1A434A606E
:1033F000818C890707D501684A6801231B049A4319
:10340000C36A1A434A60818C490707D501684A6834
:1034100001239B049A43036B1A434A60818C09077A
:1034200007D501684A680123DB039A43436B1A43BB
:103430004A60818CC90607D50268916801231B0385
:103440009943836B19439160818C890607D5016884
:103450008A6801235B039A43C36B1A438A60818C99
:10346000490612D503685A6801210905046C8A438C
:1034700022435A60026C8A4207D1026851680323D2
:103480005B059943436C19435160818C090607D54C
:1034900001684A680123DB04806C9A4302434A6056
:1034A00010BD0000F8B50446002680300660FEF727
:1034B000CBF8054620680068124F000709D50121A6
:1034C0002B46002249052046009700F0DBF9002832
:1034D0000DD12068006840070BD501212B46002242
:1034E00089052046009700F0CDF9002801D003207F
:1034F000F8BD2020A067E0672666603426750020AE
:10350000F8BD0000FFFFFF0110B5406A0022014630
:1035100040314A834A82FEF776FD10BD10B5EFF3C5
:103520001081012282F3108802681368FF2421347D
:10353000A343136081F31088EFF31081012282F31B
:103540001088026893685B085B00936081F31088C1
:10355000016E01290BD1EFF31081012282F3108853
:10356000026813681024A343136081F3108820219C
:10357000C16700210166416610BD70B5014640314A
:103580008B8BC46F0268222C04D0906908210843F9
:10359000906170BD928C446D1A402280426D921CE5
:1035A00042654A8B521E4A834A8B002AF1D1EFF3BF
:1035B0001082012383F3108803681C68FF252135DE
:1035C000AC431C6082F31088EFF31082012383F375
:1035D000108803689C68640864009C6082F310880B
:1035E0002022C26700224266036E012B02D0FEF742
:1035F000FDFE70BD0266EFF31082012383F3108895
:103600000468256810239D43256082F310880268B2
:10361000D469E443E40600D41362098BFEF7F2FC9C
:1036200070BD70B5014640318B8BC46F0268222C8F
:1036300004D0906908210843906170BD928C1A40B3
:10364000436D1A70426D521C42654A8B521E4A836A
:103650004A8B002AF1D1EFF31082012383F3108803
:1036600003681C68FF252135AC431C6082F3108879
:10367000EFF31082012383F3108803689C686408C9
:1036800064009C6082F310882022C2670022426698
:10369000036E012B02D0FEF7A9FE70BD0266EFF3A8
:1036A0001082012383F310880468256810239D434A
:1036B000256082F310880268D469E443E40600D4EC
:1036C0001362098BFEF79EFC70BD000070B50446C6
:1036D00080682169E2690843616900251143084354
:1036E00021680A683C4B1A4002430A602168486816
:1036F000032212039043E26810434860A169206AE4
:10370000084321688A680B231B029A4302438A609C
:103710003248006B8007800F16D0012818D002288D
:1037200018D0032812D010210120E369C0032C4ACD
:103730002C4E83422BD100290ED002290FD0042910
:103740000FD008293FD110E00021EDE70221EBE77F
:103750000421E9E70821E7E7FEF7D2F803E0104685
:1037600003E0FEF7DDF8002831D0616840004A0828
:103770008018FCF768FF80B201461039B14222D8A8
:103780001849491C01400007400F08431DE000296B
:1037900006D0022907D0042907D0082913D108E050
:1037A000FEF7AEF803E0104603E0FEF7B9F8002894
:1037B0000DD061684A081018FCF745FF80B2014639
:1037C0001039B14201D9012501E02168C86000200B
:1037D0006066A066284670BDF369FFFF00100240D6
:1037E00000127A00EFFF000070B5416501464031DC
:1037F0000A834A8300224266012385681B03FF2453
:103800009D4204D10569002D31D11B4C2FE0002DC4
:1038100029D08A8380210A502221C167EFF31081C9
:10382000012484F310880468A56801263543A56047
:1038300081F310888168994202D10169002918D06A
:103840000E49416674210A54EFF31081012282F37C
:10385000108800680268FF2321331A43026081F355
:103860001088002070BD0569002D00D07F248C8356
:10387000D0E70349E5E70000FF0100002336000818
:103880007B350008FFB581B0054617460446603514
:103890000A9E55E0701C53D0FDF7D6FE0499401ADD
:1038A000B04230D8002E2ED020680168490747D595
:1038B000C069C043000543D401202168C0020862EA
:1038C000EFF31080012181F3108821680B68FF223B
:1038D000A13293430B6080F31088EFF31080012135
:1038E00081F3108821688A68520852008A6080F348
:1038F00010882020A067E0678034206000202875B1
:10390000032005B0F0BDEFF31080012181F3108892
:1039100021680B68FF22A13293430B6080F310886B
:10392000EFF31080012181F3108821688A68520822
:1039300052008A6080F310882020A067E067DDE7EE
:103940002068C1690298884304D00020B842A1D001
:103950000020D6E70120F9E710B50548FEF754FB33
:103960000448054902780248FEF70EFD10BD00002C
:10397000000300205C0200205E020020F8B5040C69
:103980008BB2264682B25E430D0C1046370C58436C
:10399000360480190021794116466E43370C3604EF
:1039A0008019794126466E438919F8BD8307FF22A5
:1039B000DB0E9A408907090E9940002808DB83082E
:1039C00009489B001B18186890430843186070470B
:1039D0000007000F0838830804489B001B18D869AB
:1039E00090430843D861704700E400E000ED00E038
:1039F000E120400270470000FDF734FEFFF750FC65
:103A0000FFF738FCFDF7BEFCFDF7D4F9FFF7F0FF38
:103A10000446FDF711FA2146FEF794FD09480078A7
:103A2000FDF76EF8FEF776FFFDF7BEF87D20064A3B
:103A30000021C000FDF7AEFCFDF770FCFFF770FC45
:103A4000FAE700005D020020DD2D00080000000004
:103A5000000000000102030406070809000000003E
:103A6000010203040000000800000008A07C000020
:103A7000C80000080000000800000008A07C00004A
:103A8000C8000008A07C0008000000206C020000B4
:103A9000A00A0008FC7D00086C0200207C0B0000DE
:103AA00010010008000000000000000000000000FD
:103AB0000000000000000000000000000000000006
:103AC00000000000000000000000000000000000F6
:103AD00000000000000000000000000000000000E6
:103AE00000000000000000000000000000000000D6
:10600000424D481200000000000046000000380029
:10601000000030000000D0FFFFFF0100100003006F
:10602000000002120000120B0000120B0000000022
:1060300000000000000000F80000E00700001F0062
:10604000000000000000FFFFFFFFFFFFFFFFFFFF5A
:10605000FFFFFFFFFFFFFFFFFFFFFFFFFFFFFFFF50
:10606000FFFFFFFFFFFFFFFF9EF779E638DE76D5E3
:10607000B2C492C4B2C4B2C492C492C434CD58E67D
:1060800079E69DF7FFFFFFFFFFFFFFFFFFFFFFFF29
:10609000FFFFFFFFFFFFFFFFFFFFFFFFFFFFFFFF10
:1060A000FFFFFFFFFFFFFFFFFFFFFFFFFFFFFFFF00
:1060B000FFFFFFFFFFFFFFFFFFFFFFFFFFFFFFFFF0
:1060C000FFFF9EF759E6D3CC72C4B3C418DED7D510
:1060D00038DEBAE6FBEEFBEEBAE659DE18DE17DE76
:1060E000B3C4B2C4D3C459E69EF7FFFFFFFFFFFF5E
:1060F000FFFFFFFFFFFFFFFFFFFFFFFFFFFFFFFFB0
:10610000FFFFFFFFFFFFFFFFFFFFFFFFFFFFFFFF9F
:10611000FFFFFFFFFFFFFFFFFFFFFFFFFFFF9EF7F8
:10612000D7DD92C4B2C4F7DD3CF7BEFFB6D50CABE9
:10613000FBEEFFFFFFFFFFFFFFFFFFFF7DF792C4B6
:106140003CEF3CF718DEB2CC51C496D57DF7FFFF8B
:10615000FFFFFFFFFFFFFFFFFFFFFFFFFFFFFFFF4F
:10616000FFFFFFFFFFFFFFFFFFFFFFFFFFFFFFFF3F
:10617000FFFFFFFFFFFFFFFFFFFFFFFF38DEF0BB6A
:10618000B3C4BAE6FFFFFFFFFFFFFFFF51C46EB3CA
:10619000DBEEFFFFFFFFFFFFFFFFFFFF55CDAFBBB4
:1061A000DEFFFFFFFFFFFFFFFBEE76D571C438E691
:1061B000DFFFFFFFFFFFFFFFFFFFFFFFFFFFFFFF0F
:1061C000FFFFFFFFFFFFFFFFFFFFFFFFFFFFFFFFDF
:1061D000FFFFFFFFFFFFFFFF7DF7B2C431BCFBEE07
:1061E0001BEF92C43CEFFFFFFFFFFFFFD7DD4AA28A
:1061F00051C4FFFFFFFFFFFFFFFF38E6A799B6D5A9
:10620000FFFFFFFFFFFFFFFFFFFFFBEE76D592C40E
:1062100092C45DF7FFFFFFFFFFFFFFFFFFFFFFFFE0
:10622000FFFFFFFFFFFFFFFFFFFFFFFFFFFFFFFF7E
:10623000FFFFFFFFFFFFFBEECFB334CDBEF755D519
:1062400034CDD2C47DF7FFFFFFFF9DF72DAB049146
:10625000D3CCFFFFFFFFFFFF1CEF31BC2DAB79E676
:10626000FFFFFFFFFFFFBEF73CEFCBAA459155CDE7
:10627000B6D5AFB3BAE6FFFFFFFFFFFFFFFFFFFF9B
:10628000FFFFFFFFFFFFFFFFFFFFFFFFFFFFFFFF1E
:10629000FFFFFFFF79E66EB318DEFFFFDAE6F0BB23
:1062A00018DED7D5DEF7FFFFFFFFFFFFB6DD8AA2BE
:1062B00096D5FFFFFFFFFFFF9ADEF7D55DF771BCB4
:1062C0005DEFFFFFFFFF38DE92BCCBA20DAB5CF7AA
:1062D000FFFF59DE8EB318DEFFFFFFFFFFFFFFFF5A
:1062E000FFFFFFFFFFFFFFFFFFFFFFFFFFFFFFFFBE
:1062F000FFFF79E6AEB3BAE6FFFFFFFFDEFFB6D5DC
:106300008EAB96D55DF7FFFFFFFFDEF7D7DD55CDEE
:1063100095D571C431BC10BCB3C455CD75D538E624
:106320007DF7FFFFFFFF5CF7D3C4D3C4F7D5FFFFB2
:10633000FFFFFFFFFBEEAFB338DEFFFFFFFFFFFF06
:10634000FFFFFFFFFFFFFFFFFFFFFFFFFFFFFFFF5D
:10635000FBEECFB3DBEEFFFFFFFFFFFF9DF7D7D5CF
:1063600079E659DEBEF75CF714CD4DAB099A299A50
:106370006691C49066996699A4886691E899E899AF
:106380004DAB14CD5DF738DECBA279E6FFFF9EF76B
:10639000F7DD9EF7FFFF1CEFAFB3DAEEFFFFFFFF65
:1063A000FFFFFFFFFFFFFFFFFFFFFFFFFFFF3CF7C8
:1063B00051C4D7D56DB358DEFFFFFFFFFBEEF7D515
:1063C000FFFF5CEF54CDE899A49045914DABABAA8B
:1063D00009A2669929A24AA2A799E8A1ABA24DAB4E
:1063E0006699A388E8A172C43CEFFFFFFFFF9DF709
:1063F000B6D59DF7FFFFFFFF38DECFB33CF7FFFFB9
:10640000FFFFFFFFFFFFFFFFFFFFFFFFFFFFD3CCFB
:10641000D7DD79E610BCAFB3FBEEFFFFDFFFDFFF98
:106420001BEF0DB3E4882699A799ABA2089AA79908
:106430004AA20CAB6A9AABA2AAAA6AA2C899E89926
:10644000ABA2A899269105910CABDBEEFFFFFFFFF5
:10645000FFFFFFFFFBEEAFB318DEB6DD92C4FFFF18
:10646000FFFFFFFFFFFFFFFFFFFFFFFF38E631BC2D
:106470009EF79AE655CD4DAB11BC55D5FFFF9AE678
:10648000C899E490A899A79949A26AA28799A8995E
:106490000591AFB376CD66912699A899A899679989
:1064A00049A26AA2A799C899E490A79938DEFFFF8C
:1064B0003CEFD3C4299AF3CCF7DD7DF792C4F7DD26
:1064C000FFFFFFFFFFFFFFFFFFFFBEF710BCDBEE8C
:1064D000DEFF96D5B2BC4DAB2DA310BCB6D5E89966
:1064E0000591C899C899C899ABA2A799A899C899C4
:1064F0000591ECAAFFFF55CD05918799A899A89918
:10650000A799ABA2E899A899C8990591459159DE38
:1065100018DE49A2B2C471BCF0BB7DF71CEF10BC01
:106520009DF7FFFFFFFFFFFFFFFFD7DD14CDFFFF4C
:10653000FFFF9DF7F3C431BCF8DD1CEF089AC4904F
:10654000C899C89987994AA229A28799A899C899F0
:10655000A48892C4FFFFFFFFCFB30591C899A89903
:10656000879929A26AA28799C899C899C490C8999D
:10657000FBE63CEF14C596D53DF7FFFFFFFF55D571
:10658000B6D5FFFFFFFFFFFFDEFF92C4FBEEFFFF6C
:10659000FFFFFFFF9DF776D53CEFCFBBC8996AA2FE
:1065A000A8998799A7998AA2C899A899C899E590A6
:1065B0006AA27DF7FFFFFFFF38DE2691A899A89910
:1065C000A899C7998BA2C8998799A7994AA2E899CF
:1065D0004DABBEF75CF7FFFFFFFFFFFFFFFF3CEF98
:1065E00072C4BEF7FFFFFFFF79E6B3CCFFFFFFFFEA
:1065F000FFFFFFFFFFFFFFFF55D5A488A8996AA200
:10660000ABA229A229A26AA24699C8992691A79964
:10661000DAEEFFFFFFFFFFFFB7DDA3888799A89998
:10662000A89967994AA229A209A2ABA26AA2C8990D
:10663000A488F4CCFFFFFFFF1CEFBAE6FFFFFFFFCB
:10664000F3CC38DEFFFFFFFF14CDD7D59EF7DBE696
:10665000FFFFFFFFFFFF9DF729A22691C8998799A9
:10666000A89949A2ECAACCAA4AA2A799469138DED9
:10667000FFFFFFFFFFFFBEFF8AA26EB3E9A1869175
:10668000E89949A2CBAA2DAB4AA2C8998799A899A3
:106690004691E8995CF7FFFFBAE6F0B3BAE6DEFF91
:1066A000D7DD14CDFFFF9EF734CDB6D50CAB4AA293
:1066B000DBEEFFFFFFFF55D5C490A899A899C899B4
:1066C000A89987998AA209A229A2E899B2C4FFFFD2
:1066D000FFFFFFFFFFFF30BC8AA2DEFF2DAB299A30
:1066E000AAA229A2099A8AA28799A799A899A899E2
:1066F000A899C48814D5FFFF9EF7D3C46EAB71BCB4
:1067000079E614CD5DF79AE6D3C43CEFB2C4099A9A
:1067100010BC76CD5DF74DB30591C899A899A8999D
:10672000A899A899ABA2A7994691059118DEFFFFF9
:10673000FFFFFFFF76D5299A3CEF7AE625918799EE
:10674000A8998799A7998BA2C899A899A899A89957
:10675000C89905914DB3DAE6AFB32DABF3C4B6D506
:10676000BEF714CDBAE659E6B6DDFFFF9EF714C5B5
:10677000FBEEBAE659DEC8996691C899A899A8991E
:10678000A899E8A18AA2C899A899059176D5FFFF92
:10679000FFFF9AE6C79159DE3CEF6AA2ECAA8799FF
:1067A000A899A899A79949A209A2A899A899A899CE
:1067B000C8996791879999E696D51BEFFFFFFFFF70
:1067C000FFFFB7DDF7DD34CDF7DDFFFFFFFFFFFF94
:1067D000FFFFFFFFB7D52591A899A899A899A89977
:1067E000A79929A229A28799C8992591CCAADFFF48
:1067F000FFFFAFB3AFB3DEFF299A71C414CDE590AC
:10680000A899C899879949A24AA28799A899A8994D
:10681000A899A899058955CDFFFFFFFFFFFFFFFF4E
:10682000FFFFF7DDB2C471C439E6FFFFFFFFFFFFD2
:10683000FFFFFFFF72C4E590C899A899C899C8994D
:1068400087996AA24AA28799C899C899E58892C48B
:10685000FFFFABAAF7DD71C40CABDBEEC8998799DB
:10686000C899C899879949A26AAA8799C899C89965
:10687000A899C899E48831BCFFFFFFFFFFFFFFFF25
:10688000FFFF9AE651C472C4BAE6FFFFFFFFFFFFA5
:10689000FFFFFFFFCFBBA488A79987998799A79986
:1068A000669949A209A26699A79987994691C490C9
:1068B00014D531BC72C4ECAA96D56AA2E590A7990A
:1068C0006799A7996799E899299A6799A7998799E4
:1068D0008799A799A4908EBBFFFFFFFFFFFFFFFFE3
:1068E000FFFFFBEE72C492C4DBEEFFFFFFFFFFFF72
:1068F000FFFFFFFF10BC879949A249A2A799C89939
:1069000009A2CCAA099AA79949A24AA2A79987994C
:1069100029A28EB30DAB4EB36EB3C799E899A79178
:1069200029A249A2C799E899ABA229A2C899A79917
:1069300049A249A28799CFBBFFFFFFFFFFFFFFFFDF
:10694000FFFF1CEF72C492C4DBEEFFFF3CEF38DEAA
:10695000FBEEFFFF10BC669129A2E99914CD4DAB67
:10696000E488ECAAB6D54AA2E48851BCB6D5299AE7
:106970002691A7996AA28AA2A7996691E89996D5C5
:1069800092C4E48829A276D54DB3E4880CAB14CD2B
:10699000099A299A8699CFBBFFFF1CEFDAE6FBEE36
:1069A000FFFF1CEF92C492C4BAEEFFFF95CDB5CDA8
:1069B00095CDFFFFF0BBC4888799E590F7DDDEFF3A
:1069C00031C44AA29AE61CEF4DB3CBAA3CEFFBEED2
:1069D0006EB3C49008A209A2C4904DB3DBEE5CF77D
:1069E0000CAB0CABFBEEDBEE8AA2F0BBBEF758DEC5
:1069F00005918799C488AFBBFFFFD7D54FB474CD3D
:106A0000FFFFFBEE92C492C438E6FFFF79DE8DAB48
:106A1000F7D5FFFF92C4E590C8998799E89934CDDE
:106A2000DEFF3CEF72BCB3C43CF738DECFB3B6DD5B
:106A3000FFFF52C4A799A79910BCFFFFD7DDCFB3C2
:106A4000F7DD3CF7F4CC31BC1CEFDFFF55CD089AE5
:106A50008799C899E48851BCFFFFD6D5EB9A38DEF8
:106A6000FFFF7AE672C455D5D7DDFFFFFBE6AEAB7C
:106A700013C5FFFFF7DD4691A899C8996691E59087
:106A80004AA2B6D5BEF7D7DDF0B396D53CEF30BC01
:106A9000F7DD3CEFE999C8991BEF59E610BC1CEFF4
:106AA000B6DDCFB3B6D59EF7D7DD8BA2E48846918D
:106AB000C899A899059196D5DFFF71BCCEB3DBE6E6
:106AC000FFFFF8DDF3CC79E696D5FFFFBEF7B6CD34
:106AD000EEAB3CEF5CF7A8994691C899C899C89964
:106AE00005910591AFB379E63CEF51BC76D5DBEE6D
:106AF00071C4FBE6099AC899DBEEB2C4BAEEB6D50A
:106B000031BC1CEF7AE6AFB346910591A899C899BC
:106B1000A899679987991BEFBEF754C555CD7DEFAE
:106B2000FFFFF7DD59E6BBEE92C4DEFFDFFFB2BC2C
:106B300030B4DBE6FFFF4EB30591C899A899A89938
:106B4000C899A799E891C388B2C43CEF72BC9AE691
:106B500014CDFBE6CBA28BA2DAE655CD9AE692C421
:106B60001CEF14CDC488C899C799C899A899A89949
:106B7000C89905910CABDFFF7DEF17D613C57DF7E4
:106B8000DFFFD3C49AE6BEFFD3CC3CEFFFFFF6D5C0
:106B90000B9BD6D5FFFFB6DDE490A899C899A899BC
:106BA00087998799ECAAA7916EB33CEF35CD79E62A
:106BB00014C5DBE66AA2499ADAE634CD79E635CD2A
:106BC0001CEFAFB38791ECAA87998899A899C899C7
:106BD000C899C49076D5FFFF33C5B2BC58DEFFFF1D
:106BE0005DF7B3C49DF7FFFF34CD96D5FFFF3CEFB3
:106BF00017D658DE3CEFDEFF8BA20591A899879946
:106C0000299A6AA2ECAA299A6EB35CF7F4CC9AE6A8
:106C100014CD1CEF09A2E8991CEF34CD9AE614CDEF
:106C20005CEFCFB3E8990CAB6AA229A2A799A79908
:106C30002691299ABEF7DAE6CFB330B4BAE6FFFF61
:106C4000F7DDF4CCFFFFFFFFDBEE72C4FFFFFFFFB9
:106C5000D6D50FB418D6FFFFD7D5E490E9A1ABA2E3
:106C60008AA2C899E899E899ABAAB7D511BC54CDC6
:106C700031BC96D5299A09A296D551BC35CD30BCE8
:106C8000B6D5ECAAE899089AC7996AA2ABA209A25C
:106C9000C48876D5FFFF79E6EBA2F3C4DFFFFFFFE0
:106CA000B3C47AE6FFFFFFFFFFFF92C4BAE6FFFF1F
:106CB00099DE50B4ADABFBE6FFFF10BCA799E8A18D
:106CC0008799A799A7998BA2A899669187994691C8
:106CD00066990591E899E8A10591469126918799D1
:106CE0006691A799ABA2C899A7998799E899A791A6
:106CF000D0BBDFFFDBE6D7D537DE99DEFFFFDBEE6B
:106D000072C4DFFFFFFFFFFFFFFF59E692C4FFFFE2
:106D1000FFFF54CDADAB75CDBEFFBEF76AA2A49008
:106D2000C899C899879949A249A2679987994AA29F
:106D300009A2ABA24DABECAA4AA2CCAACCAA6799F5
:106D4000679929A26AA28799C899C899C490299A73
:106D50007DF7BEF734C530B479DEFFFFFFFFD3CC3B
:106D6000F8DDFFFFFFFFFFFFFFFFFFFF52C49AE6C2
:106D7000FFFFBEF7D6D50FB475CDBEFF1BEF09A23E
:106D8000C490C899C899A799ABA2C8994699AFB3BE
:106D9000ECAA8EAB92BCD3CC51BC8EB3D2C426919C
:106DA000A899ABA2C899C899C899E490C799DBEE95
:106DB000DEFFF7D52FB4D2BC9DF7FFFF9AE610BCDB
:106DC000DEFFFFFFFFFFFFFFFFFFFFFF9AE610BCA4
:106DD0009EF7FFFFBAE6B2BCEEB3D6D5FFFF1BEFBE
:106DE0008BA2C4908799A899299A8AA246992AA227
:106DF00029A2C7998AA2ECAA49A2A791E899669903
:106E00006AA249A2A799A899C488499ADBEEFFFF14
:106E10009AE6EEB3B1BC79DEFFFFBEFFEFBB79E6C9
:106E2000FFFFFFFFFFFFFFFFFFFFFFFFFFFF34CD6F
:106E3000F4CCFFFFFFFFD6D5F3C4ADB375CDDEFFB5
:106E40009EF7F0BBE590059187996AA249A2C8997F
:106E50008AA26AA2ABA28BA249A2ABAAE89929A2F4
:106E60008AA287990591E5908EB37DF7FFFFF7D54C
:106E700054C554CD95CDFFFFFFFF55D5F4CCFFFF92
:106E8000FFFFFFFFFFFFFFFFFFFFFFFFFFFF9EF77B
:106E900031C4F8DDFFFFFFFFD6D550B470BC75CD0F
:106EA0005CEFFFFFF7DDABAAC49046912DAB8AA241
:106EB0008799879929A229A28799A7998AA22DAB98
:106EC0008791E4888AA2B7DDFFFFDEFF17DEEEAB15
:106ED00091BC74CDDEFFFFFFD7DDF0BB7DF7FFFF78
:106EE000FFFFFFFFFFFFFFFFFFFFFFFFFFFFFFFFB2
:106EF0001CEFAFB318DEFFFFFFFF38D62FB475CD00
:106F000030B417D6FFFFFFFF18DE11BCC899099AED
:106F1000C899C49087918799E490C799099AC899AC
:106F200010B4F7DDDEFFFFFF3CEF13C5CA9AF3BCD8
:106F3000F7D5DFFFFFFF59E68EB33CEFFFFFFFFF02
:106F4000FFFFFFFFFFFFFFFFFFFFFFFFFFFFFFFF51
:106F5000FFFF1CEF8EB3F7DDFFFFDEFF1BE7F7D56A
:106F600095D5EEABBAE6BAE6FFFFFFFF3CF738DE99
:106F7000B6D534CD35CD35CD34CDB6D518DE1CEFF4
:106F8000FFFFDEFFFBE6B6CDB2C46DABD2BC79DE4F
:106F9000FFFFFFFF38DE8EB3FBEEFFFFFFFFFFFFBB
:106FA000FFFFFFFFFFFFFFFFFFFFFFFFFFFFFFFFF1
:106FB000FFFFFFFF3CEF8FB3D7DDFFFFFFFF9DF724
:106FC00099DE17DED6D591BC30B499DE7DF7DEFFB1
:106FD000FFFFFFFFFFFFFFFFFFFFFFFFDEFFFFFFE2
:106FE00038DE70BC71BC13C554CD96CD9EF7FFFF43
:106FF000FFFFB6D58EB3FBEEFFFFFFFFFFFFFFFFE6
:10700000FFFFFFFFFFFFFFFFFFFFFFFFFFFFFFFF90
:10701000FFFFFFFFFFFF3CF731BCD3C45CEFFFFF76
:10702000DFFFFFFF74CDB1BC91BC79E6CA9AB2BC58
:1070300017D634CD96CDD6D575CD78DE95CDF2C4A4
:10704000BAE654C592BC96CD99DEFFFFFFFF7DF7EF
:10705000F4CCF0BB5DF7FFFFFFFFFFFFFFFFFFFF7B
:10706000FFFFFFFFFFFFFFFFFFFFFFFFFFFFFFFF30
:10707000FFFFFFFFFFFFFFFF9EF755D5F0BB18DEB8
:10708000DEFFFFFFFFFF3CEFBDF7FBEECEB3D2BC50
:10709000B2BC6DAB2FB42CA30EB491BC18DEAA9A6F
:1070A0001BEF3BEF3CEF9EF7FFFFFFFF59DE10BCED
:1070B00015CD9DF7FFFFFFFFFFFFFFFFFFFFFFFF66
:1070C000FFFFFFFFFFFFFFFFFFFFFFFFFFFFFFFFD0
:1070D000FFFFFFFFFFFFFFFFFFFFFFFFBAEE71C4DF
:1070E00031BC18DEBEFFFFFFFFFFFFFFDEFF3CEFFE
:1070F000BAE679E638DE58DEB9E6F7D5BEFF3CEFF2
:10710000FFFFFFFFFFFFDFFF38E651C451C49AE6DF
:10711000FFFFFFFFFFFFFFFFFFFFFFFFFFFFFFFF7F
:10712000FFFFFFFFFFFFFFFFFFFFFFFFFFFFFFFF6F
:10713000FFFFFFFFFFFFFFFFFFFFFFFFFFFFFFFF5F
:1071400079E672C472C455D5DBEE7DF7FFFFFFFF11
:10715000FFFFFFFFFFFFFFFFFFFFFFFFFFFFFFFF3F
:107160007DF7BAEE55D572C471C459E6FFFFFFFF33
:10717000FFFFFFFFFFFFFFFFFFFFFFFFFFFFFFFF1F
:10718000FFFFFFFFFFFFFFFFFFFFFFFFFFFFFFFF0F
:10719000FFFFFFFFFFFFFFFFFFFFFFFFFFFFFFFFFF
:1071A000FFFFDFFF1CEF55D5D3C492C4F3CCD7DD6E
:1071B000D7DD18DE38DE38DE18DED7DDD7DD14CDBA
:1071C00031C492C455D5FBEEDEFFFFFFFFFFFFFF8A
:1071D000FFFFFFFFFFFFFFFFFFFFFFFFFFFFFFFFBF
:1071E000FFFFFFFFFFFFFFFFFFFFFFFFFFFFFFFFAF
:1071F000FFFFFFFFFFFFFFFFFFFFFFFFFFFFFFFF9F
:10720000FFFFFFFFFFFFFFFFFFFF3CEF59E638DE08
:1072100034D5D3CCD3CCD2CCD3CC14D538DE59E6AC
:10722000FCEEFFFFFFFFFFFFFFFFFFFFFFFFFFFF82
:10723000FFFFFFFFFFFFFFFFFFFFFFFFFFFFFFFF5E
:10724000FFFFFFFFFFFF0000000000000000000044
:10725000000000000000000000000000000000002E
:10726000000000000000000000000000000000001E
:10727000000000000000000000000000000000000E
:1072800000000000000000000000000000000000FE
:1072900000000000000000000000000000000000EE
:1072A00000000000000000000000000000000000DE
:1072B00000000000000000000000000000000000CE
:1072C00000000000000000000000000000000000BE
:1072D00000000000000000000000000000000000AE
:1072E000000000000000000000000000000000009E
:1072F000000000000000000000000000000000008E
:10730000000000000000000000000000000000007D
:10731000000000000000000000000000000000006D
:107320000000000000003000003C00007C00007EF7
:1073300000007E00007E00007E0000F70000F700E5
:1073400000F70000E70080E30180E30180E30180B3
:10735000C301C0C103C0C103C0C103C0C103E080F9
:1073600007E0FF07E08007E0800770800F70000FE4
:1073700070000F70000F38001F38001E38001E38D4
:10738000001E3C003EFF80FF0000000000000000E7
:1073900000000000000000000000000000000000ED
:1073A00000000000000000000000000000000000DD
:1073B0000000000000000000FEFF01F0C007F080A8
:1073C0000FF0000FF0001EF0001EF0001EF0001E77
:1073D000F0001EF0001EF0000FF0000FF08007F02C
:1073E000C003F0FF00F08007F0000EF0001EF00078
:1073F0003CF0003CF00078F00078F00078F0007885
:10740000F00078F00078F00078F0003CF0003CF0FC
:10741000001EF08007FEFF010000000000000000D9
:10742000000000000000000000000000000000005C
:10743000000000000000000000000000000000004C
:1074400000000000000000007F00FEF8003FF80090
:107450003FF8003FF8003FF8003FF8813FF8813FD8
:10746000F8813FF8813FF8C33DD8C33DD8C33DD82C
:10747000C33DD8C33C98E73C98E73C98E73C986705
:107480003C986F3C187F3C187F3C183F3C183F3CB1
:10749000183E3C183E3C183E3C181E3C181E3C183A
:1074A0001C3C181C3CFF8CFF00000000000000008A
:1074B00000000000000000000000000000000000CC
:1074C00000000000000000000000000000000000BC
:1074D0000000000000000000FE00FEF00030F0019F
:1074E00030F00330F00330F00730B00730B00F3029
:1074F000300F30301F30301E30303E30303C3030B6
:107500007C3030783030F83030F03030F03130E0EE
:107510003130C03330C03330803730803F30003FAF
:1075200030003F30003E30003E30003C30003C3008
:107530000038300038FE013000000000000000007C
:10754000000000000000000000000000000000003B
:10755000000000000000000000000000000000002B
:107560000000000000000000007E0080C701C08312
:1075700003E00107E0000FF0000E70000E78001E1F
:1075800078001E78001C3C003C3C003C3C003C3C2D
:10759000003C3C003C3C003C3C003C3C003C3C0093
:1075A0003C3C003C3C003C3C003C78001C78001E0D
:1075B00078001E70000EF0000EE00007E00107C02A
:1075C000810380C701007E00000000000000000071
:1075D00000000000000000000000000000000000AB
:1075E000000000000000000000000000000000009B
:1075F0000000000000000000006000007000007843
:1076000000C07F000078000078000078000078005B
:107610000078000078000078000078000078000012
:10762000780000780000780000780000780000788A
:1076300000007800007800007800007800007800F2
:1076400000780000780000780000780000780000E2
:10765000780000FC00C0FF0F0000000000000000E8
:10766000000000000000000000000000000000001A
:10767000000000000000000000000000000000000A
:10768000000000000000000000FE0080C303E08056
:107690000770000F70000F78001E78001E78001E23
:1076A000F8001EF8001EF0001E00000F00000F0082
:1076B000800700800700C00300E00100F0000078B0
:1076C00000003C00001E00000F0080070080030047
:1076D000C00118E0001870001C38001C18000EFCD7
:1076E000FF0FFCFF0FFCFF0F000000000000000078
:1076F000000000000000000000000000000000008A
:107700000000000000000000000000000000000079
:10771000000000000000000000FE0080C303C081E4
:1077200007E0000FF0000FF0001EF0011EF0011E38
:10773000E0011E00001E00000E00000F0000070008
:10774000800300E001007E0000E00300000700006D
:107750000E00001E00001C00003C00003C70003CBD
:10776000F8003CF8003CF8001C78001E70000EE0A9
:107770000007C0C10300FF0000000000000000007F
:1077800000000000000000000000000000000000F9
:1077900000000000000000000000000000000000E9
:1077A000000000000000000000800300C00300C0D3
:1077B0000300E00300F00300F00300F80300D80327
:1077C00000DC0300CE0300C60300C70380C30380B0
:1077D000C103C0C103C0C00360C00370C00330C098
:1077E0000338C0031CC003FCFF7FFCFF7F00C00305
:1077F00000C00300C00300C00300C00300C00300BA
:10780000C00300C00700FE7F000000000000000071
:107810000000000000000000000000000000000068
:107820000000000000000000000000000000000058
:107830000000000000000000E0FF1FE0FF1FE0FF6D
:107840001F60000060000060000060000060000039
:1078500030000030000030000030FE01B0FF03F0C7
:107860008307F0000FF0001E70001E00003E0000B5
:107870003C00003C00003C00003C70003CF8003C38
:10788000F8003CF8001C78001E70001E70000FE02D
:107890000007C0C30300FF0000000000000000005C
:1078A00000000000000000000000000000000000D8
:1078B00000000000000000000000000000000000C8
:1078C000000000000000000000FC0100870780832A
:1078D00007C0810FE0800F70800F70000070000003
:1078E0007800003800003800003C00003CFC013CFF
:1078F000FF07FC870FFC010FFC001E7C001E3C00F4
:107900003C3C003C3C003C3C003C3C003C38003CE7
:1079100078003C78003C70001CF0001EE0000EC0B7
:10792000010780870300FE00000000000000000047
:107930000000000000000000000000000000000047
:107940000000000000000000000000000000000037
:107950000000000000000000F0FF3FF0FF3FF0FFDC
:107960001FF0001C30000E38000618000718000336
:1079700000800300800100C00100C00000E00000A2
:107980006000007000007000003800003800003C0B
:1079900000001C00001C00001E00001E00001E0055
:1079A000001E00001F00001F00001F00001F00003D
:1079B0001F00001F00001E0000000000000000006B
:1079C00000000000000000000000000000000000B7
:1079D00000000000000000000000000000000000A7
:1079E000000000000000000000FF01C08307E0016C
:1079F0000FF0001E70001E78003C78003C78003CC0
:107A000078003CF8003CF0011EF0031EE0070FC0B8
:107A10009F0780FF0180FF01C0F903E0E007F0C08D
:107A20000F78001F78001F3C003E3C003C3C003CAF
:107A30003C003C3C003C3C003C78001E70000EE0EA
:107A4000000FC0830300FF000000000000000000E2
:107A50000000000000000000000000000000000026
:107A60000000000000000000000000000000000016
:107A70000000000000000000007F00C0C301E00023
:107A800003F0000778000E78000E38001C3C001C44
:107A90003C001C3C003C3C003C3C003C3C003C3C72
:107AA000003E78003E78003FF8803FF0E33DE0FF85
:107AB0003C803F3C00001C00001E00001E00001E19
:107AC00000000E00000FE00007F08107F08103F0D6
:107AD000C101E0F100803F00000000000000000054
:107AE0000000000000000000000000000000000096
:107AF0000000000000000000000000000000000086
:107B00000000000000000000000000000000000075
:107B10000000000000000000000000000000000065
:107B2000000000000000007C0000FE0000FE0000DD
:107B3000FE0000FE00007C000000000000000000CD
:107B40000000000000000000000000000000000035
:107B5000000000000000007C0000FE0000FE0000AD
:107B6000FE0000FE00007C0000000000000000009D
:107B70000000000000000000000000000000000005
:107B800000000000000000000000000000000000F5
:107B900000000000000000000000000000000000E5
:107BA00000000000000000000000000000000000D5
:107BB000000000000000FCFFFFFCFFFF00000000D1
:107BC00000000000000000000000000000000000B5
:107BD00000000000FCFFFFFCFFFF000000000000B1
:107BE0000000000000000000000000000000000095
:107BF0000000000000000000000000000000000085
:107C00000000000000000000000000000000000074
:107C10000000000000000000000000000000000064
:107C20000000000000300000780000F00000E001DB
:107C300000800300000700000E00001C0000380058
:107C400000700000E00000C0010080030000070099
:107C5000000E00001C00003800001C00000E000098
:107C60000700800300C00100E00000700000380041
:107C7000001C00000E00000700800300E00100F07F
:107C8000000078000030000000000000000000004C
:107C900000000000000000000000000000000000E4
:107CA000D2000112010462040D33127A0720193048
:107CB0003132333435363738394142434445460052
:107CC000C1814001C0804104610C2108E118A11C60
:107CD000011A30011638013660012E70012F600044
:107CE000FF00C0C101C30302C2C60607C705C5C461
:107CF00004CC0C0DCD0FCFCE0E0ACACB0BC9090890
:107D0000C8D81819D91BDBDA1A1EDEDF1FDD1D1CCF
:107D1000DC14D4D515D71716D6D21213D311D1D05F
:107D200010F03031F133F3F23236F6F737F53534FF
:107D3000F43CFCFD3DFF3F3EFEFA3A3BFB39F9F8CF
:107D40003828E8E929EB2B2AEAEE2E2FEF2DEDEC6F
:107D50002CE42425E527E7E62622E2E323E121209F
:107D6000E0A06061A163A3A26266A6A767A565649F
:107D7000A46CACAD6DAF6F6EAEAA6A6BAB69A9A80F
:107D80006878B8B979BB7B7ABABE7E7FBF7DBDBC4F
:107D90007CB47475B577B7B67672B2B373B17170DF
:107DA000B05090915193535292965657975595943F
:107DB000549C5C5D9D5F9F9E5E5A9A9B5B9959584F
:107DC00098884849894B8B8A4A4E8E8F4F8D4D4CEF
:107DD0008C4484854587474686824243834181801F
:107DE000EB4001358807002041424D4E2738043AC8
:0C7DF0003D3E4C42801E438005310000E7
:04000005080000B13E
:00000001FF
